:0400000050EF00F0CD
:10000800FACF34F0FBCF35F0E1CF36F0E2CF37F05E
:10001800D9CF38F0DACF39F0F3CF3AF0F4CF3BF05C
:100028001BEEACF0F0B6F0A003D0F0EC47F023D014
:10003800F0B8F0A203D0ECEC47F01DD0F2BC9DA8BC
:1000480005D09EA803D0C8EC43F015D0F2BC9DAAF9
:1000580005D09EAA03D025EC44F00DD0F2BC9DA09B
:1000680005D09EA003D030EC47F005D0F2B6F2A040
:1000780002D0E7EC47F03BC0F4FF3AC0F3FF39C0C9
:10008800DAFF38C0D9FF37C0E2FF36C0E1FF35C01C
:10009800FBFF34C0FAFF110019EEE4F063EF25F01E
:1000A800FAEC47F0030103B166EF06F0FAC1D9FF95
:1000B800FBC1DAFFDF500001E46FE439E832070BD7
:1000C800E806D8A4D8D003011D51D8A4D4D0010182
:1000D800FC05000128D0EA51DB6FDC6BDB1FDC1F5D
:1000E800DB4BDC2B0101FC510001DD6FDE6BDB51CA
:1000F800DD27DC51DE23DD510101FA2500017D6F8A
:10010800DE510101FB2100017E6F420E7F6F030E5D
:10011800806F86EC42F0100E0001EA6503D0100EE5
:10012800EA5F02D0000EEA6FEA51D8A4D4D7420E93
:10013800C76F030EC86FFAC1C9F0FBC1CAF001014D
:10014800FC51FC0F0001CB6F48EC3BF0C7C0EDF051
:10015800C8C0EEF0C9C0EFF0CAC0F0F0FAC16BF049
:10016800FBC16CF0FCC16DF053EC3DF06BC0E5F0E9
:100178006CC0E6F06DC0E7F06EC0E8F00001ED512C
:10018800E5190AE1EE51E61907E1EF51E71904E133
:10019800F051E819D8B411D0030102510F0B050A28
:1001A800D8B408D002510F0B030AD8A41200E251A8
:1001B800D8B41200E0EC43F01200030102510F0B17
:1001C800030AD8A403D0D451B9EC44F0FAC1F1F031
:1001D800FBC1F2F0000120EE07F0F151D926F251EF
:1001E800DA22DECF1EF3DECF1FF3DECF20F3DECF21
:1001F80021F320EE0CF0F151D926F251DA22DF502A
:100208000F0BA0EC40F0000120EE0BF0F151D926C5
:10021800F251DA22DF38070B606F20EE0BF0F15154
:10022800D926F251DA22DF500F0B7FEC46F0F1C0ED
:1002380060F0F2C061F00101FC5122EC48F0F1C01D
:1002480091F0F2C092F05DEC38F0000EE66EB0EC82
:1002580026F0000E0301066F000E076F000E086FF0
:10026800000E096F000E0A6F000E0B6F000E0C6F68
:10027800000E0D6F12000001E439E832070B030A83
:10028800D8B407D0E439E832070B050AD8A463EFDD
:1002980006F0000E0301986FFAC1F4F0FBC1F5F007
:1002A800020E1219D8A408D2000120EE01F0F45170
:1002B800D926F551DA2203016251DE1809E16351AA
:1002C800DE1806E16451DE1803E16551DE18D8A492
:1002D800F3D104A5F1D1F4C060F0F5C061F0E2EC0F
:1002E80038F00009D8A408D003010251F00B09091D
:1002F800026F23EC39F01200000120EE06F0F451F1
:10030800D926F551DA22DECFDBF0DDCFDCF0DBC019
:100318006BF0DCC06CF06D6B6E6B0101FC51FC0F77
:1003280000016F6F490E706F010E716F010E2AEC9C
:100338002DF0C60E0001606F070E616F930E626F9D
:10034800020E636F000E656F100E646F3AEC3CF09E
:10035800D60E0001606F070E616FFAC162F0FBC133
:1003680063F0FC0E0101FC250001646F656BFF0E54
:1003780065233AEC3CF0660E0001B96F030EBA6FC4
:10038800930EBB6F020EBC6FC60EBD6F070EBE6F1D
:100398000101FC510C0F0001BF6F15EC10F0ED0EC0
:1003A8000001606F000E616F930E626F020E636F43
:1003B800000E656F040E646F3AEC3CF0FAC16BF006
:1003C800FBC16CF0FCC16DF053EC3DF06BC0E5F087
:1003D8006CC0E6F06DC0E7F06EC0E8F00001E551D2
:1003E800ED190AE1E651EE1907E1E751EF1904E1C9
:1003F800E851F019D8B408D003010251F00B0909EB
:10040800026F23EC39F01200000120EE06F0F451DF
:10041800D926F551DA2203010E51DE5C0F51DE5860
:10042800D8A04ED0000120EE06F0F451D926F5519F
:10043800DA22DECFDBF0DDCFDCF023EE0EF0DECF0C
:10044800DDF0DDCFDEF0DD1FDE1FDD4BDE2BDB5107
:10045800DD27DC51DE23DD510301905D0001DE5113
:1004680003019159D8B020D040504110D8B414D0CD
:10047800000E0001D56F000ED66F000ED76F050E67
:10048800D86F01D809D00500FA6E4050FD6E415072
:10049800FE6EFF6AFA50120003010251F00B0909BF
:1004A800026F23EC39F01200000120EE06F0F4513F
:1004B800D926F551DA22DECF0EF3DDCF0FF338D08F
:1004C800000120EE06F0F451D926F551DA22DE506B
:1004D800DE10D8A40DD003010E290AE10F29D8A4F3
:1004E80007D0000E0F6F000E0E6F104B112B20D08F
:1004F80040504110D8B414D0000E0001D56F000E42
:10050800D66F000ED76F050ED86F01D809D0050039
:10051800FA6E4050FD6E4150FE6EFF6AFA501200AE
:1005280003010251F00B0909026F23EC39F01200A4
:1005380003010E2927E10F2925E1102923E11129BB
:10054800D8A420D040504110D8B414D0000E0001D7
:10055800D56F000ED66F000ED76F050ED86F01D875
:1005680009D00500FA6E4050FD6E4150FE6EFF6ADC
:10057800FA50120003010251F00B0909026F23EC33
:1005880039F01200030102510F0B080AD8A408D051
:10059800D551B9EC44F00301D651B9EC44F009D077
:1005A800030102510F0B030AD8A403D0D651B9ECAA
:1005B80044F0080E0101FA25FA6F000EFB21FB6FCB
:1005C800FC510001DB6FDC6B20EE05F0F451D926FD
:1005D800F551DA22DF500F0BDD6FDE6B0C0EDD27D5
:1005E800000EDE23DB51DD1904E1DC51DE19D8B43D
:1005F80037D0FAC1D9FFFBC1DAFFDF50E26F010142
:10060800FA4BFB2BFC51F40F0001F36F190EE96F45
:10061800FAC191F0FBC192F0F305936F010E946F4C
:100628000EC395F00FC396F010C397F011C398F05E
:10063800760E996F030E9A6FE9C09BF0C60E9C6FF9
:10064800070E9D6F010E9E6F73EC1EF0FF0E0101E9
:10065800FA250001EB6FFF0E0101FB21000105D017
:10066800000EF36F000EEB6F000EEC6F03010383B7
:10067800029102930295029740504110D8B414D0C9
:10068800EBC0D5F0ECC0D6F0F3C0D7F0010E0001F6
:10069800D86F01D809D00500FA6E4050FD6E415060
:1006A800FE6EFF6AFA50120003010251F00B0909AD
:1006B800026F23EC39F01200000120EE01F0F45132
:1006C800D926F551DA2203011E51DE180AE11F511D
:1006D800DE1807E12051DE1804E12151DE18D8B4F4
:1006E8000ED060EC39F0020E03011219D8A41200E2
:1006F8000251F00B0909026F23EC39F012000001D6
:1007080020EE06F0F451D926F551DA22DECFDBF0DF
:10071800DDCFDCF0DBC06BF0DCC06CF06D6B6E6BBA
:100728000101FC51FC0F00016F6F490E706F000E44
:10073800716F010E2AEC2DF0C60E0001606F070ED6
:10074800616F930E626F020E636F000E656F100E7D
:10075800646F3AEC3CF0D60E0001606F070E616FD3
:10076800FAC162F0FBC163F0FC0E0101FC25000137
:10077800646F656BFF0E65233AEC3CF0220E0001B6
:10078800B96F030EBA6F930EBB6F020EBC6FC60E25
:10079800BD6F070EBE6F0101FC510C0F0001BF6F4A
:1007A80015EC10F0ED0E0001606F000E616F930EF6
:1007B800626F020E636F000E656F040E646F3AEC91
:1007C8003CF0FAC16BF0FBC16CF0FCC16DF053EC6E
:1007D8003DF06BC0E5F06CC0E6F06DC0E7F06EC0B0
:1007E800E8F00001E551ED190AE1E651EE1907E1DB
:1007F800E751EF1904E1E851F019D8B40ED060ECD4
:1008080039F0020E03011219D8A412000251F00B9C
:100818000909026F23EC39F01200000120EE06F0FE
:10082800F451D926F551DA2203010A51DE5C0B5145
:10083800DE58D8A05AD0000120EE06F0F451D9268F
:10084800F551DA22DECFDBF0DDCFDCF023EE0AF063
:10085800DECFDDF0DDCFDEF0DD1FDE1FDD4BDE2B72
:10086800DB51DD27DC51DE23DD5103018E5D000104
:10087800DE5103018F59D8B02CD000910291029318
:100888000295029740504110D8B415D0009B000E35
:100898000001D56F000ED66F000ED76F000ED86F0F
:1008A80001D809D00500FA6E4050FD6E4150FE6E29
:1008B800FF6AFA501200030103930483020E12190F
:1008C800D8A412000251F00B0909026F23EC39F089
:1008D8001200000120EE06F0F451D926F551DA2273
:1008E800DECF0AF3DDCF0BF32ED0000120EE06F0A9
:1008F800F451D926F551DA22DE50DE10D8A415D0ED
:1009080003010A2912E10B29D8A40FD0000120EE17
:1009180006F0F451D926F551DA22DECF0AF3DDCFFD
:100928000BF303010C4B0D2B0ED060EC39F0020ECB
:1009380003011219D8A412000251F00B0909026F21
:1009480023EC39F0120003010A2913E10B2911E104
:100958000C290FE10D29D8A40CD00483020E12191A
:10096800D8A412000251F00B0909026F23EC39F0E8
:100978001200030102510F0B030AD8A403D0D65169
:10098800B9EC44F0010E0301C96FF4C060F0F5C082
:1009980061F099EC3CF0000120EE05F0F451D92605
:1009A800F551DA22DF500F0B0009D8B41AD0FAC17A
:1009B800E0F0FBC1E1F0080EF425B96F000EF52157
:1009C800BA6F20EE05F0F451D926F551DA22DF503E
:1009D8000F0BBB6F8FEC13F0B9C0FAF1BAC0FBF183
:1009E80007D0080E0101FA25FA6F000EFB21FB6FF4
:1009F8000101FC510001DB6FDC6B20EE05F0F451C6
:100A0800D926F551DA22DF500F0BDD6FDE6B0C0EA5
:100A1800DD27000EDE23DB51DD1904E1DC51DE1990
:100A2800D8B498D0FAC1D9FFFBC1DAFFDF50E26F22
:100A38000101FA4BFB2B000120EE05F0F451D926F9
:100A4800F551DA22DF500F0B00080101FC25F40FE5
:100A58000001F36F20EE05F0F451D926F551DA22A2
:100A6800DF500F0B190FE96FE251D8B428D0FAC143
:100A780091F0FBC192F0F305936F010E946F0AC3D6
:100A880095F00BC396F00CC397F00DC398F0320E97
:100A9800996F030E9A6FE9C09BF0C60E9C6F070E04
:100AA8009D6F000E9E6F73EC1EF0FF0E0101FA257C
:100AB8000001EB6FFF0E0101FB21000150D0010185
:100AC800FC510001DB6FDC6B20EE05F0F451D926F8
:100AD800F551DA22DF500F0BDD6FDE6B0D0EDD27CF
:100AE800000EDE23DB51DD5DDE51800ADF6FDC5155
:100AF800800ADF59D8B02BD0FAC191F0FBC192F02F
:100B0800F305936F010E946F0AC395F00BC396F02B
:100B18000CC397F00DC398F0220E996F030E9A6FCD
:100B2800E9C09BF0C60E9C6F070E9D6F000E9E6F6E
:100B380073EC1EF0FAC1B9F0FBC1BAF00001F3057D
:100B4800BB6F8FEC13F0B9C0FAF1BAC0FBF1000E1D
:100B5800000101D0000EF36F000EEB6F000EEC6F7A
:100B6800010E0301C96F000EC26F000EC16F000EA7
:100B7800DF6F0099038300A152D0000120EE05F039
:100B8800F451D926F551DA22DFAA46D003010091A3
:100B9800029102930295029740504110D8B415D0A3
:100BA800009BEBC0D5F0ECC0D6F0F3C0D7F0010E37
:100BB8000001D86F01D809D00500FA6E4050FD6ECB
:100BC8004150FE6EFF6AFA5012000301039302BB04
:100BD80000BB69D000B302D000A765D0010E0001A8
:100BE800AF6FE30EB06F000EB16F0301DE5129EC59
:100BF8002AF00009D8A40DD0000E0001D36F000E12
:100C0800D46F000ED56F000ED66F000EAEEC2CF030
:100C180045D023EC48F047D0D6EC39F044D00291C7
:100C280002930295029740504110D8B415D0009B0A
:100C3800EBC0D5F0ECC0D6F0F3C0D7F0010E000140
:100C4800D86F01D809D00500FA6E4050FD6E4150AA
:100C5800FE6EFF6AFA501200030102BB00BB23D0EC
:100C680000B302D000A71FD0010E0001AF6FE30E42
:100C7800B06F000EB16F0301DE5129EC2AF00009B4
:100C8800D8A40FD0000E0001D36F000ED46F000E51
:100C9800D56F000ED66F000EAEEC2CF00301009756
:100CA80002D023EC48F0020E03011219D8A4120056
:100CB8000251F00B0909026F23EC39F0120060ECC5
:100CC80039F0120040504110D8B4120000EC48F03E
:100CD8000001DB6FDBB713D0FAC1D5F0FBC1D6F04A
:100CE800FCC1D7F0030ED86F01D812000500FA6EC8
:100CF8004050FD6E4150FE6EFF6AFA501200FAC174
:100D0800D5F0FBC1D6F0FCC1D7F0020E0001D86FB8
:100D180001D812000500FA6E4050FD6E4150FE6E7B
:100D2800FF6AFA501200000E00018C6F000E8B6FE4
:100D38007A0E916F000E926FD3D2250E9A19D8B4FD
:100D48000BD076C0D9FF77C0DAFF9AC0DFFF764BA9
:100D5800772B8B4B8C2BC4D2000E986F000E976F9D
:100D6800000E996F04D000019985784B792B78C0D3
:100D7800F6FF79C0F7FFF86A0800F550300AD8B4D2
:100D8800F2D778C0F6FF79C0F7FFF86A0800F55087
:100D980081EC45F0D8A0C1D0000E0001986F000E7C
:100DA800976F97C060F098C061F0000E0001636F04
:100DB8000A0E626FA5EC44F060C097F061C098F02D
:100DC800D00E0001826FFF0E836F78C0F6FF79C0E6
:100DD800F7FFF86A0800F550846F856B8251842705
:100DE800835185238451972785519823784B792BF4
:100DF80078C0F6FF79C0F7FFF86A0800F55081EC73
:100E080045F0D8A08AD0CDD70001998986D0998B92
:100E1800998FA8D091C0D9FF92C0DAFFDECF8DF0AC
:100E2800DDCF8EF0020E9127000E92238D518E1188
:100E3800D8A404D01E0E8D6FFF0E8E6F000E906F1B
:100E4800000E8F6F03D000018F4B902B8F518D2593
:100E5800826F90518E21836F82C0F6FF83C0F7FFA7
:100E6800000EF86E0F0EF76403D00800F55005D099
:100E7800F6CFE9FFF7CFEAFFEF500009D8A4E3D790
:100E8800000197518F5D98519059D8B005D08F5176
:100E9800975F9051985B0FD0000E986F000E976F78
:100EA8000AD076C0D9FF77C0DAFF200EDF6E764B06
:100EB800772B8B4B8C2B9707D8A098079729F1E1B4
:100EC8009829D8B41ED0EDD78DC0F6FF8EC0F7FF95
:100ED800000EF86E76C0D9FF77C0DAFF0F0EF76400
:100EE80003D00800F55005D0F6CFE9FFF7CFEAFFA9
:100EF800EF50DF6E00018D4B8E2B764B772B8B4B93
:100F08008C2B8F07D8A090078F29DEE19029D8B4C1
:100F1800E7D1DAD7C00E991325D078C0F6FF79C08B
:100F2800F7FF0001784B792BF86A0800F5CF9AF0A3
:100F38009A51000AD8B4E1D1580AD8B468D73C0A03
:100F4800D8B410D00D0AD8B40DD0050AD8B45CD7DF
:100F58001F0AD8B45FD7060AD8B4DCD70D0AD8B4AC
:100F680057D7BED199C082F0C00E8217D8A42ED010
:100F780099A90ED091C0D9FF92C0DAFFDECF93F0C5
:100F8800DECF94F0DECF95F0DECF96F0040E0ED0D3
:100F980091C0D9FF92C0DAFFDECF93F0DDCF94F095
:100FA800000E94BFFF0E956F966F020E9127000EEC
:100FB800922396AF70D0030E9913961F951F941F16
:100FC800936D000E94239523962365D099A90ED08E
:100FD80091C0D9FF92C0DAFFDECF93F0DECF94F054
:100FE800DECF95F0DECF96F0040E0FD091C0D9FF7A
:100FF80092C0DAFFDECF82F0DDCF83F082C093F0BB
:1010080083C094F0956B966B020E9127000E922385
:1010180042D0010E9A6F0A0E9A19D8B447D09A5145
:10102800040DE30EF324F66EF90EF420F76EF86A59
:10103800000EF8220900F550935D0900F550945907
:101048000900F55095590900F5509659D8A02ED0A9
:101058009A2BE1D7010E9A6F080E9A19D8B426D0A8
:101068009A51040D0B0EF324F66EFA0EF420F76E67
:10107800F86A000EF8220900F550935D0900F55052
:1010880094590900F55095590900F5509659D8A07A
:101098000DD09A2BE1D79951C00B000AD8B4B9D713
:1010A800800AD8B4D7D7400AD8B4B3D79751981183
:1010B800D8B409D099C082F0030E8217D8B403D0EF
:1010C8009707D8A09807800E9ABF7F0E826F975116
:1010D8009A5D9851800A8259D8B007D09A51975F83
:1010E800000E9ABFFF0E985B04D0000E986F000E9A
:1010F800976F99A522D099C082F0030E8217D8B4B1
:101108000AD076C0D9FF77C0DAFF2D0EDF6E764B96
:10111800772B8B4B8C2B97519811D8B433D076C042
:10112800D9FF77C0DAFF300EDF6E764B772B8B4B0B
:101138008C2B9707D8A09807EED797519811D8B459
:1011480011D076C0D9FF77C0DAFF200EDF6E764B5C
:10115800772B8B4B8C2B9707D8A098079751981112
:10116800D8A4EFD799C082F0030E8217D8B40AD05A
:1011780076C0D9FF77C0DAFF2D0EDF6E764B772B5E
:101188008B4B8C2B9A51896F8A6B89BF8A07A0D0A9
:1011980089C082F08AC083F0D89082378337D8908C
:1011A80082378337E30E8225F66EF90E8321F76EB8
:1011B800F86A000EF8220900F5CF64F00900F5CFAF
:1011C80065F00900F5CF66F00A00F5CF67F093C027
:1011D80060F094C061F095C062F096C063F0A0EC36
:1011E80038F060C06DF061C06EF062C06FF063C02F
:1011F80070F00A0E0001716F000E726F000E736FAF
:10120800000E746F7CEC3AF000016D51300F9A6F4C
:1012180055D093C060F094C061F095C062F096C05C
:1012280063F089C082F08AC083F0D8908237833710
:10123800D890823783370B0E8225F66EFA0E8321FB
:10124800F76EF86A000EF8220900F5CF64F009007D
:10125800F5CF65F00900F5CF66F00A00F5CF67F025
:10126800A0EC38F0000160510F0B886F99BB04D0D7
:10127800880E866FFD0E03D0770E866FFD0E876F82
:101288008851010D86C082F087C083F0F350822711
:10129800F450832382C0F6FF83C0F7FFF86A080082
:1012A800F5CF9AF00BD09951C00B000AD8B470D77B
:1012B800800AD8B4AED7400AD8B46AD776C0D9FF66
:1012C80077C0DAFF9AC0DFFF764B772B8B4B8C2BDE
:1012D8008907D8A08A078929E6E18A29D8A4E3D70B
:1012E80078C0F6FF79C0F7FF784B792BF86A0800C9
:1012F800F5CF9AF09A51D8A420D576C0D9FF77C0F7
:10130800DAFF000EDF6E8BC076F08CC077F012002B
:101318005BC265F0000E0001666F000EB0EC2BF0AA
:1013280043C276F044C277F045C278F046C279F0FD
:101338001CEC2EF002015E51A4EC2DF002015B05BD
:10134800D8A4EDD151C262F0390EF3EC45F065C274
:10135800A8F0010E0001A8170201D8906435000119
:10136800A96F02015D39F00B0001A911A811626F84
:101378001D0EF3EC45F0A6C0A8F0A7C0A9F0A9C0BF
:10138800A8F00001A96B030EA8175FC2AAF0010E0E
:10139800AA17D890AA37D890AA3702015C39F00B5F
:1013A8000001AA11A811626F1E0EF3EC45F00201AC
:1013B80061516211D8B46FD061C2ACF062C2ADF0B5
:1013C8000001AE6BAF6B4ED0ACC09AF0ADC09BF0D5
:1013D800AEC09CF0AFC09DF07D0E00019E6F000E68
:1013E8009F6F000EA06F000EA16F80EC3DF027D01C
:1013F800ACC09AF0ADC09BF0AEC09CF0AFC09DF001
:10140800FA0E00019E6F000E9F6F000EA06F000E77
:10141800A16F80EC3DF013D0ACC09AF0ADC09BF04A
:10142800AEC09CF0AFC09DF0F40E00019E6F010E9F
:101438009F6F000EA06F000EA16F80EC3DF09AC068
:10144800ACF09BC0ADF09CC0AEF09DC0AFF016D024
:10145800000E0001AC6F000EAD6F000EAE6F000EF7
:10146800AF6F0CD002015D51070AD8B4ADD70F0A8F
:10147800D8B4BED7010AD8B4CFD7EAD702015C29BD
:101488000001A86F05D0D890AF33AE33AD33AC337D
:10149800A82FF9D709D0000E0001AC6F000EAD6F70
:1014A800000EAE6F000EAF6FACC062F0240EF3EC0E
:1014B80045F0A6C062F01F0EF3EC45F0260ECDEC09
:1014C80044F00001B06F0C0E02015C19D8A408D0DA
:1014D800070E5D19D8B40CD0080E5D19D8B408D021
:1014E8000B0E5C19D8A407D0070E5D19D8A403D039
:1014F8000001B08702D00001B097B085B0C062F09B
:10150800260EF3EC45F0310ECDEC44F00001B06F3F
:10151800F80EB017030EB013B0C062F0310EF3EC42
:1015280045F00A0E0001626F370EF3EC45F0120E1B
:1015380002017419D8A42FD0070E5D19D8B404D0AD
:10154800080E5D19D8A417D0310ECDEC44F0000177
:10155800B06FB09FB0C062F0310EF3EC45F0400EB2
:101568000001626F2F0EF3EC45F0000E0001626F70
:10157800300EF3EC45F0090E02015D19D8A40BD02A
:10158800310ECDEC44F00001B06FB08FB0C062F006
:10159800310EF3EC45F0330ECDEC44F00001B06FA2
:1015A800B09DB08163C2A8F0010EA817060EA96FFE
:1015B800D890A837A92FFCD7A851B013B0C062F0B3
:1015C800330EF3EC45F063C2A8F0010E0001A81732
:1015D800D890A837D890A835FF0A1D0BB06FB0C0B7
:1015E80062F03B0EF3EC45F0020150510001626FCE
:1015F800200EF3EC45F04FC262F0210EF3EC45F0FB
:10160800000E0001626F0D0EF3EC45F0000E0001B4
:10161800626F0E0EF3EC45F0000E0001626F0F0EC4
:10162800F3EC45F0120E02017419D8A471D0090E1A
:101638005D19D8A420D0800E435D130E4459610E65
:101648004559330E4659D8A016D04305F70E4459CC
:10165800CB0E45593C0E4659D8B00DD0020E0001AC
:10166800626F360EF3EC45F0640E0001626F3A0EBD
:10167800F3EC45F02CD0090E02015D19D8A421D055
:10168800800E435D1A0E4459700E4559180E46597E
:10169800D8A017D0410E435DDD0E44594A0E455976
:1016A8001F0E4659D8B00DD0020E0001626F360EDB
:1016B800F3EC45F07F0E0001626F3A0EF3EC45F053
:1016C80006D0030E0001626F360EF3EC45F0090EEA
:1016D80002015D19D8A410D06305D8A40DD0650EF9
:1016E8000001626F3A0EF3EC45F0190E0001626FCB
:1016F8003B0EF3EC45F00CD0650E0001626F3A0E1C
:10170800F3EC45F01D0E0001626F3B0EF3EC45F063
:10171800FF0E0001626F120EF3EC45F0120047C293
:101728006DF048C26EF049C26FF04AC270F047ECE3
:101738003AF04BC26DF04CC26EF04DC26FF04EC223
:1017480070F0B0EC3AF0020150510001626F250EC2
:10175800F3EC45F04FC262F0260EF3EC45F00A0EAA
:10176800CDEC44F00001B06F9F0EB017020176393E
:10177800E846E00B0001B013B0C062F00A0EF3ECCB
:1017880045F0C80E0001B06F02015F51D8B402D015
:101798000001B089B0C062F0300EF3EC45F0000EE5
:1017A8000001AB6F10D0AB51010D520EF324D96E6E
:1017B800020EF420DA6EDF50626FAB51280FF3ECA3
:1017C80045F00001AB2B02015A510001AB5DD8A0D6
:1017D800EAD702015A51D8B408D05A0510090001B5
:1017E800626F270EF3EC45F006D0000E0001626F21
:1017F800270EF3EC45F0FF0E0001626F3E0EF3EC8E
:1018080045F0FF0E0001626F3F0EF3EC45F0120049
:10181800000E00016D6F62C0D9FF63C0DAFFDF50B0
:101828006E6F000E6D6F18D26451D8B4F6D16D5139
:10183800020D990EF324D96E030EF420DA6EDE2819
:10184800D8B4EBD162C0D9FF63C0DAFFDF50656F4F
:10185800666B651F661F654B662BFE0E676FFF0E76
:10186800686F6D51020D990EF324D96E030EF420A2
:10187800DA6EDF50696F6A6B6751692768516A23AE
:10188800330E6925F66EFA0E6A21F76EF86A000EB5
:10189800F8220800F5506EC06BF06C6B6B27000ED9
:1018A8006C2365516B2766516C236CBFB6D16C51A4
:1018B80005E1100E6B5DD8B0D5D1AFD1D3D16E5143
:1018C800010DF3506025D96EF4506121DA6E030ED4
:1018D800DF6E6E2B6E51010DF3506025D96EF450FA
:1018E8006121DA6E000EDF6E6D51020D000E656F1C
:1018F800030E666F990E6527000E6623F350652761
:10190800F4506623010E6525D96E000E6621DA6E45
:101918000301DFA00BD000016E51010DF3506025CB
:10192800D96EF4506121DA6E000EDB8000016D5132
:10193800020D000E656F030E666F990E6527000E87
:101948006623F3506527F4506623010E6525D96E8A
:10195800000E6621DA6E0301DFA20BD000016E5182
:10196800010DF3506025D96EF4506121DA6E000E36
:10197800DB8200016D51020D000E656F030E666F6C
:10198800990E6527000E6623F3506527F4506623E9
:10199800010E6525D96E000E6621DA6E0301DFA4FB
:1019A80089D000016E51010DF3506025D96EF450B5
:1019B8006121DA6E000EDB847DD06E51010DF3508B
:1019C8006025D96EF4506121DA6E050EDF6E6E2B3C
:1019D8006E51010DF3506025D96EF4506121DA6E15
:1019E800000EDF6E6D51020D000E656F030E666FFF
:1019F800990E6527000E6623F3506527F450662379
:101A0800010E6525D96E000E6621DA6E0301DFA688
:101A18000BD000016E51010DF3506025D96EF450C2
:101A28006121DA6E000EDB8000016D51020D000E9F
:101A3800656F030E666F990E6527000E6623F350D7
:101A48006527F4506623010E6525D96E000E6621C0
:101A5800DA6E0301DFA80BD000016E51010DF350BF
:101A68006025D96EF4506121DA6E000EDB82000128
:101A78006D51020D000E656F030E666F990E652796
:101A8800000E6623F3506527F4506623010E652582
:101A9800D96E000E6621DA6E0301DFAA0BD00001B1
:101AA8006E51010DF3506025D96EF4506121DA6E44
:101AB800000EDB8400013CD06E51010DF35060250F
:101AC800D96EF4506121DA6E060EDF6E6E2B6E5100
:101AD800010DF3506025D96EF4506121DA6ED1C33F
:101AE800DFFF6E2BFDEC47F0800AA00FD8A006D0D0
:101AF800FDEC47F0800A600FD8A00CD000016E51B1
:101B0800010DF3506025D96EF4506121DA6E200E74
:101B1800DF6E0ED000016E51010DF3506025D96EB5
:101B2800F4506121DA6EFDEC47F03F0BDF6EC2D74F
:101B38006E2B91D06E51010DF3506025D96EF45083
:101B48006121DA6E070EDF6E6E2B6E51010DF350B8
:101B58006025D96EF4506121DA6E000EDF6E6D518A
:101B6800020D000E656F030E666F990E6527000E55
:101B78006623F3506527F4506623010E6525D96E58
:101B8800000E6621DA6E0301DFAE0BD000016E5144
:101B9800010DF3506025D96EF4506121DA6E000E04
:101BA800DB8000016D51020D000E656F030E666F3C
:101BB800990E6527000E6623F3506527F4506623B7
:101BC800010E6525D96E000E6621DA6E0301DFACC1
:101BD80071D700016E51010DF3506025D96EF45094
:101BE8006121DA6E000EDB8265D70301CE69000E33
:101BF800CF6F00016D51020D990EF324D96E030EBB
:101C0800F420DA6E6E51010DF3506025E96EF45040
:101C18006121EA6EDFCFEFFF8BD76D51020D990E70
:101C2800F324D96E030EF420DA6EDF50020AD8B41A
:101C3800DCD7010AD8B443D6070AD8B4DBD7010ADF
:101C4800D8B4BBD6030AD8B437D7010AD8B472D7E8
:101C58000F0AD8B4CFD76D2B0301985100016D5DE1
:101C6800D8A0E2D562C0D9FF63C0DAFF6EC0DFFF3B
:101C780012000001CE6F100E0001D26F000ED16F5E
:101C8800CF0E606F000E616F000E636F000E626F03
:101C9800000E656F010E646FB0EC43F0D50E0001C5
:101CA800606F080E616F000E636F000E626F010EA9
:101CB800656F0F0E646FB0EC43F0930E0001606F18
:101CC800020E616F000E636F000E626F000E656F8B
:101CD800100E646FB0EC43F00001CE05D8A407D015
:101CE800CF511F0B8009CF6F0301008105D0000180
:101CF800CF511F0B4009CF6FFC0E0001CF17CF95B6
:101D0800CF97CF99D251010DD50EF324D96E080E75
:101D1800F420DA6ECFC0DFFFD22BD251010DD50EE1
:101D2800F324606F080EF420616F1E0E626F030EBD
:101D3800636F000E656F040E646F3AEC3CF00001AF
:101D4800D251040FD26F000ED06F030102AD47D0FD
:101D58000001D08F0301D051DC5DD8B03FD0000125
:101D6800D08D03010089C14BC22B94510001CC6F67
:101D7800CD6B0301C1510001CC190CE10301C25123
:101D88000001CD19D8A406D0000E0301DF6F23D0BF
:101D9800030124D0030194510001CC6FCD6B0301E2
:101DA800C1510001CC5D0301C2510001CD59D8B029
:101DB80013D00301DF2BDF51955DD8B010D0000E92
:101DC800DF6F5EEC30F00009D8A409D0000E0301E3
:101DD800C26F000EC16F0001D09DDAD700990301D0
:101DE80000A304D00001D08B030100930001D09917
:101DF80003019851D8B405D00001CA51CB11D8A419
:101E080006D00001D091D093D095D09709D09EEC00
:101E180031F00001CC6FD051CC19F00BCC19D06F38
:101E2800D251010DD50EF324D96E080EF420DA6EC6
:101E3800D0C0DFFFD22BD251010DD50EF324606F35
:101E4800080EF420616F060E626F030E636F000EBA
:101E5800656F020E646F3AEC3CF00001D251020F3C
:101E6800D26F03019851D8B411D00001CA51CB11D7
:101E7800D8B40CD0D50E606F080E616FD20E626FA9
:101E8800000E636F010E646F0CEC0CF00001D25170
:101E9800010DD50EF324D96E080EF420DA6EC7C0F2
:101EA800DFFFD22BCA51CB11D8B435D0D251010D96
:101EB800D50EF324606F080EF420616FC8C062F07D
:101EC800C9C063F0CAC064F0CBC065F03AEC3CF01E
:101ED800C8C091F0C9C092F0CAC093F0000E0001CA
:101EE800946F06C395F007C396F008C397F009C32B
:101EF80098F0320E996F030E9A6FD2C09BF0D50EF0
:101F08009C6F080E9D6F000E9E6F73EC1EF0000113
:101F1800D251CA2533D003019851D8B430D0C60E57
:101F28000001606F070E616FD10E626F000E636F64
:101F3800000E646F0CEC0CF0C60E0001916F070EDA
:101F4800926FD1C093F0000E946F06C395F007C34B
:101F580096F008C397F009C398F0220E996F030E04
:101F68009A6FD2C09BF0D50E9C6F080E9D6F000E25
:101F78009E6F73EC1EF00001D251D125D26F06C3BB
:101F88006BF007C36CF008C36DF009C36EF0000175
:101F9800D251F00F6F6F490E706F000E716F000E07
:101FA8002AEC2DF0D50E0001606F080E616F930EBC
:101FB800626F020E636F000E656F100E646F3AEC6D
:101FC8003CF0220E0001B96F030EBA6F930EBB6F7F
:101FD800020EBC6FD50EBD6F080EBE6FD2C0BFF02B
:101FE80015EC10F00001D251010DD50EF324606FED
:101FF800080EF420616F930E626F020E636F000E7D
:10200800656F040E646F3AEC3CF00001D251040F86
:10201800D26FF00ED2250301C56FC66BFF0EC62323
:102028001200000E0101636F000E656F000E646FF1
:10203800000E626F000E606F000E616FB9C091F004
:10204800BAC092F0100E0001936F010E946F000E4B
:10205800956F010E966F0AEC26F00001BF51C06F14
:10206800C16B0F0EC027000EC123040EC26FC1350D
:10207800C133C033C22FFBD7C0510101636F635115
:10208800D8A404D0010E636F000E0BD0BFC0C0F0FF
:102098000F0E0001C017D8A402D0010E01D0000E07
:1020A8000101626F6205D8A448D0000E646F6339DD
:1020B800F00BF00F656F24D001016451010D200E63
:1020C800F324D96E010EF420DA6E6451010D100E5E
:1020D800F324E96E010EF420EA6EEF500001C06FA0
:1020E80001016551010DF3500001BD25E96EF45061
:1020F800BE21EA6EEF50C019DF6E0101642B652B1B
:1021080063510001C06FC16BC03BC13BF00EC117EA
:10211800C0510F0BC113F00EC0170101655100012A
:10212800C26FC36BC051C25DC351800AC46FC15135
:10213800800AC459D8B07FD0BFD70001BF510F0B58
:10214800C06FC16BC01FC11FC04BC12BBF51C26F35
:10215800C36BC051C227C151C323C251BD25010160
:10216800606F0001C351BE210101616F000E656FF0
:102178000F0E656501D036D00001BF510F0B01016C
:10218800656113D06551010DF3506025D96EF45087
:102198006121DA6E6551010D300EF324E96E010EEE
:1021A800F420EA6EDFCFEFFF1BD00001BF510F0B09
:1021B80001016519D8A40AD06551010D300EF32428
:1021C800D96E010EF420DA6E800E09D06551010D2A
:1021D800300EF324D96E010EF420DA6E000EDF6E95
:1021E800652BC6D7000E656F0F0E656501D023D02D
:1021F8006551010D200EF324D96E010EF420DA6E1C
:102208006551010D000EF324E96E010EF420EA6E0B
:10221800EF500001C06F01016551010D300EF3242C
:10222800E96E010EF420EA6EEF500001C019DF6E6E
:102238000101652BD9D7500E0001606F010E616F47
:10224800000E636F000E626F000E656F100E646FF4
:10225800B0EC43F0000E0101656F56D0000E01018D
:10226800646F0F0E646501D033D06451010D400EC8
:10227800F324D96E010EF420DA6E65510001C06FA7
:10228800C16BC03BC13BF00EC117C0510F0BC1134E
:10229800F00EC017010164510001C027000EC123D0
:1022A800C051BD25E96EC151BE21EA6EEF50C26F23
:1022B80001016451010D500EF324E96E010EF42062
:1022C800EA6EEF500001C219DF6E0101642BC9D715
:1022D800500E0001606F010E616F400E626F010EBB
:1022E800636F000E656F100E646F3AEC3CF0500E91
:1022F80000017D6F010E7E6FB9C07FF0BAC080F01B
:1023080086EC42F00101652BFF0E0001C06FFF0E45
:10231800C16F010163510001C26FC36BC051C22775
:10232800C151C323010165510001C46FC56BC2517E
:10233800C45DC551800AC66FC351800AC659D8A06A
:102348008DD7000E0101656F0F0E656501D023D092
:102358006551010D400EF324D96E010EF420DA6E9A
:102368006551010D200EF324E96E010EF420EA6E8A
:10237800EF500001C06F01016551010D500EF324AB
:10238800E96E010EF420EA6EEF500001C019DF6E0D
:102398000101652BD9D7400E00017D6F010E7E6FBC
:1023A800B9C07FF0BAC080F086EC42F0BBC060F0E4
:1023B800BCC061F0400E0001626F010E636F000E39
:1023C800656F100E646F3AEC3CF012000A0E0201C1
:1023D8003C6F010E3B6F000E00017C6F0F0E7C6599
:1023E80001D016D07C51010DF3506825D96EF450F8
:1023F8006921DA6EDF506A6F7C51010DF350662552
:10240800D96EF4506721DA6E6A51DF1A7C2BE6D751
:10241800000E00017C6F0F0E7C6501D022D07C512C
:10242800010DF3506625D96EF4506721DA6EDF503E
:102438006A6F6A51010DE30EF324F66EF80EF4206C
:10244800F76EF86A000EF8227C51010DF3506625EC
:10245800D96EF4506721DA6E0800F5CFDFFF7C2BC8
:10246800DAD766C060F067C061F002EC24F00201C0
:102478003C05D8B427D1000E00017C6F0F0E7C6597
:1024880001D020D17C516A6F6B6B010E6A27000E58
:102498006B236A516625D96E6B516721DA6EDF505E
:1024A8006C6F7C516625D96E000E6721DA6EDF509D
:1024B8006C197A6F7C516A6F6B6B030E6A27000E7A
:1024C8006B236A516625D96E6B516721DA6EDF502E
:1024D8006C6F7C516D6F6E6B020E6D27000E6E2354
:1024E8006D516625D96E6E516721DA6EDF506C1911
:1024F8007B6F7A517B19786F7C516A6F6B6B010E19
:102508006A27000E6B236A516625D96E6B516721C5
:10251800DA6EDF506C6F7C516D6F6E6B020E6D273B
:10252800000E6E236D516625D96E6E516721DA6EE5
:10253800DF506C19796F7F0E7A650CD01B0E7AC04C
:102548006AF06B6BD8906A376B376A19726F6B5188
:10255800736F05D0D8907A35726F736B733772C00A
:102568007AF07F0E79650CD01B0E79C06AF06B6B20
:10257800D8906A376B376A19746F6B51756F05D0CD
:10258800D8907935746F756B753774C079F07F0E94
:102598007B650CD01B0E7BC06AF06B6BD8906A37DA
:1025A8006B376A19766F6B51776F05D0D8907B358A
:1025B800766F776B773776C07BF07C516625D96E5E
:1025C800000E6721DA6E7C516625E96E000E6721E0
:1025D800EA6EEF5078197A19DF6E7C516A6F6B6B6F
:1025E800010E6A27000E6B236A516625D96E6B515E
:1025F8006721DA6E7C516C6F6D6B010E6C27000ED3
:102608006D236C516625E96E6D516721EA6EEF50B6
:1026180078197919DF6E7C516A6F6B6B020E6A2725
:10262800000E6B236A516625D96E6B516721DA6EED
:102638007C516C6F6D6B020E6C27000E6D236C5114
:102648006625E96E6D516721EA6EEF5078197B199E
:10265800DF6E7C516A6F6B6B030E6A27000E6B236B
:102668006A516625D96E6B516721DA6E7C516C6FA1
:102678006D6B020E6C27000E6D236C516625E96E9A
:102688006D516721EA6EEF506E6F7C516F6F706B02
:10269800010E6F27000E70236F516625E96E705189
:1026A8006721EA6EEF50716F7C516625E96E000E66
:1026B8006721EA6EEF5071196E197819DF6E040EF2
:1026C8007C27DCD668C060F069C061F0D7EC17F0F1
:1026D800000E00017C6F0F0E7C6501D016D07C5176
:1026E800010DF3506825D96EF4506921DA6EDF5078
:1026F8006A6F7C51010DF3506625D96EF45067213D
:10270800DA6E6A51DF1A7C2BE6D702013C073C518E
:10271800D8B412007DD6000E0001BE6FB9C0BFF05C
:10272800BAC0C0F05AD103019851020D000E000141
:10273800BC6F030EBD6F990EBC27000EBD23F3506E
:10274800BC27F450BD23010EBC25D96E000EBD2157
:10275800DA6E0301DF909851020D000E0001BC6F84
:10276800030EBD6F990EBC27000EBD23F350BC2786
:10277800F450BD23010EBC25D96E000EBD21DA6EC2
:102788000301DF929851020D000E0001BC6F030E89
:10279800BD6F990EBC27000EBD23F350BC27F45023
:1027A800BD23010EBC25D96E000EBD21DA6E0301D2
:1027B800DF949851020D000E0001BC6F030EBD6F2F
:1027C800990EBC27000EBD23F350BC27F450BD233F
:1027D800010EBC25D96E000EBD21DA6E0301DF960D
:1027E8009851020D000E0001BC6F030EBD6F990ECB
:1027F800BC27000EBD23F350BC27F450BD23010EA7
:10280800BC25D96E000EBD21DA6E0301DF98985100
:10281800020D000E0001BC6F030EBD6F990EBC27A0
:10282800000EBD23F350BC27F450BD23010EBC2578
:10283800D96E000EBD21DA6E0301DF9A9851020DA0
:10284800000E0001BC6F030EBD6F990EBC27000E71
:10285800BD23F350BC27F450BD23010EBC25D96E0F
:10286800000EBD21DA6E0301DF9C9851020D000EA7
:102878000001BC6F030EBD6F990EBC27000EBD236F
:10288800F350BC27F450BD23010EBC25D96E000EB1
:10289800BD21DA6E0301DF9EBFC0D9FFC0C0DAFFD9
:1028A8009851020D990EF324E96E030EF420EA6E96
:1028B800DFCFEFFF64D0BFC060F0C0C061F006ECAE
:1028C80043F060C0BFF061C0C0F04DD0BFC070F031
:1028D800C0C071F00AEC15F070C0BFF071C0C0F054
:1028E8006CD0BFC060F0C0C061F0F4EC44F060C0D0
:1028F800BFF061C0C0F061D0BFC0A6F0C0C0A7F0F3
:1029080072EC1CF0A6C0BFF0A7C0C0F056D0BFC084
:1029180060F0C0C061F0B5EC47F060C0BFF061C0C6
:10292800C0F04BD0BFC0AFF0C0C0B0F05FEC1FF03C
:10293800AFC0BFF0B0C0C0F040D0BFC067F0C0C0EB
:1029480068F091EC44F067C0BFF068C0C0F035D0C3
:10295800010E0001BE6FBB51010DF350B925BF6FC9
:10296800F450BA21C06F03019851020D990EF32457
:10297800D96E030EF420DA6EFF0EDF6E1ED0BFC0D4
:10298800D9FFC0C0DAFF0001BF4BC02BDF50020ADD
:10299800D8B491D7010AD8B499D7070AD8B4A1D71F
:1029A800010AD8B4A9D7030AD8B4B1D7010AD8B450
:1029B800B9D70F0AD8B4C1D7CBD703019851020DA4
:1029C800990EF324D96E030EF420DA6EDE28D8B4FB
:1029D80004D0100E986101D0982B0001BB51010D55
:1029E800B9C0BCF0BAC0BDF0F350BC27F450BD2349
:1029F800BC51BF5DBD51C059D8B003D0BE51D8B489
:102A080092D6BFC0B9F0C0C0BAF01200070E0001DC
:102A1800766F000E776F70C0D9FF71C0DAFFDF5094
:102A28000F0B786F70C0D9FF71C0DAFFDF50726F7B
:102A380072390F0B0F0B7D6F704B712B70C0D9FF64
:102A480071C0DAFFDECF79F0DDCF7AF079C074F0AB
:102A58007AC075F0020E7025706F000E7121716FCB
:102A680070C07BF071C07CF0704B712B030102AD1C
:102A7800EFD07BC0D9FF7CC0DAFF0001DF38070B3D
:102A8800B3EC45F00009D8A421D079C060F07AC031
:102A980061F0F9EC41F00009D8A418D0030198516D
:102AA800020D000E0001726F030E736F990E7227EC
:102AB800000E7323F3507227F4507323010E72250E
:102AC800D96E000E7321DA6E0301DF8000017D519B
:102AD800E7EC46F00009D8A422D00301DC5100013C
:102AE8007D5DD8A01CD07D510301DD5DD8A017D035
:102AF8009851020D000E0001726F030E736F990E4C
:102B08007227000E7323F3507227F4507323010EBB
:102B18007225D96E000E7321DA6E0301DF8200017F
:102B28007851F3EC46F00009D8A418D00301985165
:102B3800020D000E0001726F030E736F990E72275B
:102B4800000E7323F3507227F4507323010E72257D
:102B5800D96E000E7321DA6E0301DF8403019851E8
:102B6800020D000E0001726F030E736F990E72272B
:102B7800000E7323F3507227F4507323010E72254D
:102B8800D96E000E7321DA6E0301DFA4A6D0985126
:102B9800020D000E0001726F030E736F990E7227FB
:102BA800000E7323F3507227F4507323010E72251D
:102BB800D96E000E7321DA6E0301DFA28ED0985110
:102BC800020D000E0001726F030E736F990E7227CB
:102BD800000E7323F3507227F4507323010E7225ED
:102BE800D96E000E7321DA6E0301DFA076D079C0AA
:102BF8006BF07AC06CF07BC0D9FF7CC0DAFF0001B3
:102C0800DF38070B6D6F2BEC33F000017851BFEC08
:102C180047F00301038900017D51BAEC47F07BC0FE
:102C2800D9FF7CC0DAFF0001DF500F0B0009D8A4E0
:102C380002D0000E09D07BC0D9FF7CC0DAFF0001AA
:102C4800DF500F0B726F72050301C76F038B45D0FE
:102C58009851020D000E0001726F030E736F990EEA
:102C68007227000E7323F3507227F4507323010E5A
:102C78007225D96E000E7321DA6E0301DF90985128
:102C8800020D000E0001726F030E736F990E72270A
:102C9800000E7323F3507227F4507323010E72252C
:102CA800D96E000E7321DA6E0301DF929851020D7E
:102CB800000E0001726F030E736F990E7227000EDB
:102CC8007323F3507227F4507323010E7225D96EC3
:102CD800000E7321DA6E0301DF9470C070F071C0CA
:102CE80071F01200030103B12DD1000E0001E26F53
:102CF800000EE36F000EE46F000EE56F000E030197
:102D0800E26F0251F00B0209026FCBC3E6F000A597
:102D18008CD01751010D460EF324F66EFA0EF420EE
:102D2800F76EF86A000EF8220800F5CFDDF08A5138
:102D38000001DD25DE6F000EDDBFFF0E03018B21D4
:102D48000001DF6FE06BE16B0C0ED890DE37DF37E8
:102D5800E037E137E82EF9D7DEC060F0DFC061F078
:102D6800E0C062F0E1C063F07D0E646F000E656F35
:102D7800000E666F000E676FA0EC38F060C06DF053
:102D880061C06EF062C06FF063C070F00301D35190
:102D98003AEC40F003011C51010D460EF324F66E87
:102DA800FA0EF420F76EF86A000EF8220800F5CF44
:102DB800DDF08C510001DD25DE6F000EDDBFFF0E5A
:102DC80003018D210001DF6FE06BE16B0C0ED890E1
:102DD800DE37DF37E037E137E82EF9D7DEC060F0BD
:102DE800DFC061F0E0C062F0E1C063F07D0E646FA7
:102DF800000E656F000E666F000E676FA0EC38F06E
:102E080060C06DF061C06EF062C06FF063C070F0BA
:102E18000301D4513AEC40F00301D351DAEC35F018
:102E28000301D451DAEC35F0120003011751010DFA
:102E3800460EF324F66EFA0EF420F76EF86A000ECA
:102E4800F8220800F5CFDDF086510001DD25DE6FA0
:102E5800000EDDBFFF0E030187210001DF6FE06B6D
:102E6800E16B0C0ED890DE37DF37E037E137E82E1C
:102E7800F9D7DEC060F0DFC061F0E0C062F0E1C009
:102E880063F07D0E646F000E656F000E666F000EB6
:102E9800676FA0EC38F060C06DF061C06EF062C082
:102EA8006FF063C070F00301D5513AEC40F00301B4
:102EB8001C51010D460EF324F66EFA0EF420F76E3F
:102EC800F86A000EF8220800F5CFDDF088510001FD
:102ED800DD25DE6F000EDDBFFF0E03018921000135
:102EE800DF6FE06BE16B0C0ED890DE37DF37E03731
:102EF800E137E82EF9D7DEC060F0DFC061F0E0C04E
:102F080062F0E1C063F07D0E646F000E656F000E25
:102F1800666F000E676FA0EC38F060C06DF061C09E
:102F28006EF062C06FF063C070F00301D6513AECE6
:102F380040F00301D551DAEC35F00301D651DAEC53
:102F480035F0120000EC48F00001DD6FDDA913D068
:102F5800000ED56F000ED66F000ED76F020ED86F19
:102F680001D812000500FA6E4050FD6E4150FE6E09
:102F7800FF6AFA50120040504110D8B41200000EF7
:102F88000001D56F000ED66F000ED76F030ED86FF5
:102F980001D812000500FA6E4050FD6E4150FE6ED9
:102FA800FF6AFA501200000120EE0DF06051D92698
:102FB8006151DA22DF50626F6251010DE30EF32492
:102FC800F66EF80EF420F76EF86A000EF822080084
:102FD800F5CF63F060C0D9FF61C0DAFF6351DF1A33
:102FE80020EE0EF06051D9266151DA22DF50626F6F
:102FF8006251010DE30EF324F66EF80EF420F76E1D
:10300800F86A000EF8220800F5CF63F020EE01F010
:103018006051D9266151DA226351DF1A20EE0FF090
:103028006051D9266151DA22DF50626F6251010D79
:10303800E30EF324F66EF80EF420F76EF86A000E2D
:10304800F8220800F5CF63F020EE02F06051D9268F
:103058006151DA226351DF1A20EE0CF06051D92653
:103068006151DA22DF50626F6251010DE30EF324E1
:10307800F66EF80EF420F76EF86A000EF8220800D3
:10308800F5CF63F020EE03F06051D9266151DA22C2
:103098006351DF1A60C0D9FF61C0DAFF02013B51FA
:1030A800DF1A7F0E3B650DD01B0E3BC262F000019C
:1030B800636BD890623763376219646F6351656FC9
:1030C80007D0D89002013B350001646F656B653706
:1030D80064C03BF260C0D9FF61C0DAFFDF50626FA5
:1030E80020EE04F06051D9266151DA226251DF1ACC
:1030F80020EE01F06051D9266151DA22DF50626F6B
:1031080020EE05F06051D9266151DA226251DF1AAA
:1031180020EE02F06051D9266151DA22DF50626F49
:1031280020EE06F06051D9266151DA226251DF1A89
:1031380020EE03F06051D9266151DA22DF50626F28
:1031480020EE07F06051D9266151DA226251DF1A68
:1031580020EE04F06051D9266151DA22DF50626F07
:1031680020EE08F06051D9266151DA226251DF1A47
:1031780020EE05F06051D9266151DA22DF50626FE6
:1031880020EE09F06051D9266151DA226251DF1A26
:1031980020EE06F06051D9266151DA22DF50626FC5
:1031A80020EE0AF06051D9266151DA226251DF1A05
:1031B80020EE07F06051D9266151DA22DF50626FA4
:1031C80020EE0BF06051D9266151DA226251DF1AE4
:1031D80020EE08F06051D9266151DA22DF50626F83
:1031E80020EE0CF06051D9266151DA226251DF1AC3
:1031F80020EE09F06051D9266151DA22DF50626F62
:1032080020EE0DF06051D9266151DA226251DF1AA1
:1032180020EE0AF06051D9266151DA22DF50626F40
:1032280020EE0EF06051D9266151DA226251DF1A80
:1032380020EE0BF06051D9266151DA22DF50626F1F
:1032480020EE0FF06051D9266151DA226251DF1A5F
:103258001200020166A506D0800E0001B26F030EAF
:10326800B16F120066C2B4F0030E0001B417D8B4EF
:1032780005D0800EB26F040EB16F120002015B51CF
:10328800D8A409D0400E0001B36505D0800EB26FF6
:10329800020EB16F12008A8602016A51B9EC44F03D
:1032A800000E0001A76F040EA66F8CEC09F0020156
:1032B8005B05D8A427D0B3C062F0220EF3EC45F02A
:1032C8000A0ECDEC44F00001C06FF00EC017C087A5
:1032D800C0C062F00A0EF3EC45F0400E0001626FC8
:1032E800400EF3EC45F0000E0001626F410EF3EC66
:1032F80045F05BC265F0010E0001666F010EB0EC8F
:103308002BF00CD0000E0001626F400EF3EC45F07C
:10331800000E0001626F410EF3EC45F002015B51B3
:10332800D8A405D0B3C062F0000EF3EC45F01EEC53
:1033380048F0800E7FEC47F0000E0001C16F0DD001
:10334800C151010DF350B125D96EF450B221DA6E96
:10335800DF507FEC47F00001C12BB351C15DD8A00D
:10336800EFD71CEC48F002016681E70E66175BC2D6
:1033780065F0000E0001666F030EB0EC2BF0000E36
:103388000001B86F000EB96F0A0EBA6F000EBB6F5E
:10339800B8C06DF0B9C06EF0BAC06FF0BBC070F0C5
:1033A80002016A513AEC40F002016A51DAEC35F058
:1033B80002016D516E116F117011D8B461D0705146
:1033C80007E16D29FF0E6E590F0E6F59D8A01DD059
:1033D8006DC260F06EC261F06FC262F070C263F0DD
:1033E8007D0E0001646F000E656F000E666F000EA3
:1033F800676FA0EC38F00C0ED89000016037613789
:1034080062376337E82EF8D723D06DC2B4F06EC2A6
:10341800B5F06FC2B6F070C2B7F00C0ED8900001CC
:10342800B437B537B637B737E82EF8D7B4C060F039
:10343800B5C061F0B6C062F0B7C063F07D0E646FCE
:10344800000E656F000E666F000E676FA0EC38F017
:1034580060C0BCF061C0BDF062C0BEF063C0BFF028
:10346800BCC06DF0BDC06EF0BEC06FF0BFC070F0E4
:1034780002016C513AEC40F002016C51DAEC35F083
:10348800000E0001B26F000EB16F1200020166A5B6
:1034980006D0800E0001B26F030EB16F120066C233
:1034A800B3F0030E0001B317D8B405D0800EB26F85
:1034B800040EB16F12008A86B151B211D8A407D098
:1034C800000EA76F040EA66F8CEC09F006D0B1C0F1
:1034D800A6F0B2C0A7F08CEC09F002015B05D8A4F5
:1034E80013D0010E0001626F220EF3EC45F0000EBE
:1034F8000001626F400EF3EC45F0000E0001626FB0
:10350800410EF3EC45F016D077C262F0120EF3ECE0
:1035180045F078C262F0130EF3EC45F0000E00019E
:10352800626F400EF3EC45F0000E0001626F410E31
:10353800F3EC45F002016683E70E66170001B1510E
:10354800B211D8A408D05BC265F0000E666F050EF4
:10355800B0EC2BF046D002015B05D8A409D0010ECF
:103568000001656F000E666F060EB0EC2BF039D0C7
:10357800000E0001656F000E666F050EB0EC2BF0B3
:103588000001B151B36FB251B46FB56BB66B0C0E8D
:10359800D890B337B437B537B637E82EF9D7B3C0B4
:1035A80060F0B4C061F0B5C062F0B6C063F07D0EE3
:1035B800646F000E656F000E666F000E676FA0ECFB
:1035C80038F060C06DF061C06EF062C06FF063C02B
:1035D80070F002016B513AEC40F002016B51DAECE9
:1035E80035F002016D516E116F117011D8B461D0B0
:1035F800705107E16D29FF0E6E590F0E6F59D8A053
:103608001DD06DC260F06EC261F06FC262F070C210
:1036180063F07D0E0001646F000E656F000E666F2B
:10362800000E676FA0EC38F00C0ED89000016037E0
:10363800613762376337E82EF8D723D06DC2B3F00D
:103648006EC2B4F06FC2B5F070C2B6F00C0ED8906E
:103658000001B337B437B537B637E82EF8D7B3C05B
:1036680060F0B4C061F0B5C062F0B6C063F07D0E22
:10367800646F000E656F000E666F000E676FA0EC3A
:1036880038F060C0B7F061C0B8F062C0B9F063C08C
:10369800BAF0B7C06DF0B8C06EF0B9C06FF0BAC07C
:1036A80070F002016C513AEC40F002016C51DAEC16
:1036B80035F0000E0001B26F000EB16F120002016A
:1036C800AE6F000E0201B36F060EB46F64C6B1F29E
:1036D800DAEC3BF00201B06FB151A96FAA6B040E8E
:1036E800A927000EAA23B051AB6FAC6BA951AB5DF3
:1036F800AC51800AAD6FAA51800AAD59D8A04ED0FE
:10370800B3C2D9FFB4C2DAFF000EDF6EB1C2B2F2A3
:10371800B251010DF350B325D96EF450B421DA6ECD
:10372800120EDF6EB251A96FAA6B010EA927000E07
:10373800AA23A951B325D96EAA51B421DA6E340E41
:10374800DF6E020EB227B251010DF350B325D96EC8
:10375800F450B421DA6E120EDF6EB251A96FAA6B63
:10376800010EA927000EAA23A951B325D96EAA5183
:10377800B421DA6E340EDF6E020EB227B2C2B1F295
:10378800B1C264F6AEC2D3F0B3C2D4F0B4C2D5F0BD
:10379800B1C2D6F0DF51AEEC2CF09AD03551F00B17
:1037A8000109356F3599359B359D359FB3C2D9FFD2
:1037B800B4C2DAFF35C2DFFFAEC2D3F0B3C2D4F071
:1037C800B4C2D5F0B0C2D6F0DF51AEEC2CF0020195
:1037D800AF6FAF51D8A47ED0050E1CEC3FF00201AC
:1037E8003551F00B0109356F35510F0B1009356F45
:1037F800FF0EA96FFF0EAA6FB051AB6FAC6BA9514A
:10380800AB27AA51AC23AB51B325D96EAC51B42127
:10381800DA6E35C2DFFFB1C2B2F2B251010DF35018
:10382800B325D96EF450B421DA6E120EDF6EB251A0
:10383800A96FAA6B010EA927000EAA23A951B325C7
:10384800D96EAA51B421DA6E340EDF6E020EB22799
:10385800B251010DF350B325D96EF450B421DA6E8C
:10386800120EDF6EB251A96FAA6B010EA927000EC6
:10387800AA23A951B325D96EAA51B421DA6E340E00
:10388800DF6E020EB227B2C2B1F2010E0001D36F91
:103898000201B051010DB3C2A9F2B4C2AAF2F350A9
:1038A800A927F450AA23FF0EA9250001D46FFF0E03
:1038B8000201AA210001D56F0201B0510008B1250B
:1038C800AB6FAB290001D66F0201DF51AEEC2CF0D3
:1038D8000201AF6F000E2F6FAF511200000E0001F2
:1038E800AA6F000EAB6F000EAC6F000EAD6FA6C0D6
:1038F800D9FFA7C0DAFFDF50AE6FA64BA72BA6C033
:10390800D9FFA7C0DAFFFF0EDE14AA6FFF0EDE1480
:10391800AB6FFF0EDE14AC6F000EDE14AD6FAAC0E5
:103928009AF0ABC09BF0ACC09CF0ADC09DF0640EAB
:103938009E6F000E9F6F000EA06F000EA16F80ECAF
:103948003DF09AC0AAF09BC0ABF09CC0ACF09DC003
:10395800ADF0030E0001A625A66F000EA721A76FE4
:10396800AAC076F0ABC077F0ACC078F0ADC079F003
:103978000FEC3AF00009D8A418D003019851020DB1
:10398800000E0001A86F030EA96F990EA827000E5C
:10399800A923F350A827F450A923010EA825D96E0E
:1039A800000EA921DA6E0301DF860001AE510F0B6C
:1039B800E7EC46F00009D8A418D003019851020D8D
:1039C800000E0001A86F030EA96F990EA827000E1C
:1039D800A923F350A827F450A923010EA825D96ECE
:1039E800000EA921DA6E0301DF880001AE39070B4A
:1039F800CFEC46F00009D8A418D003019851020D65
:103A0800000E0001A86F030EA96F990EA827000EDB
:103A1800A923F350A827F450A923010EA825D96E8D
:103A2800000EA921DA6E0301DF8A03019851020D05
:103A3800000E0001A86F030EA96F990EA827000EAB
:103A4800A923F350A827F450A923010EA825D96E5D
:103A5800000EA921DA6E0301DFA845D09851020DA6
:103A6800000E0001A86F030EA96F990EA827000E7B
:103A7800A923F350A827F450A923010EA825D96E2D
:103A8800000EA921DA6E0301DFA62DD09851020D90
:103A9800000E0001A86F030EA96F990EA827000E4B
:103AA800A923F350A827F450A923010EA825D96EFD
:103AB800000EA921DA6E0301DFAA15D00001AE3984
:103AC800070B0301E06FAAC060F0ABC061F0ACC0A7
:103AD80062F0ADC063F00001AE510F0B646FFFECF4
:103AE80046F00301038FA6C0A6F0A7C0A7F01200F6
:103AF800000E0001896F84C043F285C044F286C07D
:103B080045F287C046F2A80E0201476F610E486F62
:103B1800000E496F000E4A6F500E4B6FC30E4C6F6C
:103B2800000E4D6F000E4E6F010E5B6F070E5D6F3E
:103B3800020E5E6F010E646F000E656F000E506F0F
:103B4800080E4F6F0C0E5C6F010E5F6F000E606FFA
:103B5800000E636FC10E526F940E536FC10E546FF7
:103B6800030E5A6F340E516F000E666F000E676FAA
:103B780082C068F283C069F2000E626F000E616F46
:103B8800800E756F980E6D6F3A0E6E6F000E6F6F28
:103B9800000E706F020E766F0B0E776F120E786F35
:103BA800000E726F000E736F7151D8A426D04AECC4
:103BB80037F002016A6F4AEC37F002016B6F4AEC8A
:103BC80037F002016C6F000E0001606F830E616FA9
:103BD800000E626F02016B51F6EC3FF01A0E000105
:103BE800606F7F0E616F000E626F02016C51F6EC20
:103BF8003FF0010E0201716F0BD06A51B9EC44F02D
:103C080002016B51B9EC44F002016C51B9EC44F07B
:103C1800B1EC3FF0000E0001656F010E666F010EFA
:103C2800B0EC2BF043C276F044C277F045C278F08E
:103C380046C279F01CEC2EF0420E0001626F3B0E7A
:103C4800F3EC45F03B0ECDEC44F00001886F88BBE7
:103C5800F9D7230E626F0C0EF3EC45F01E0E00012F
:103C6800626F0D0EF3EC45F0AA0E0001626F1F0E95
:103C7800F3EC45F08F0E0001626F350EF3EC45F062
:103C8800FF0E0001626F320EF3EC45F0400E0001AA
:103C9800626F310EF3EC45F0010E0001656F010E05
:103CA800666F000EB0EC2BF093866186F19E000ED5
:103CB8000001896F05D081A602D0939603D0892B85
:103CC80089AFF9D76196F18EFF0E626F230EF3EC80
:103CD80045F0420ECDEC44F00201746F1200000E64
:103CE8000001A66F000EA76F000EA86F93C060F0CA
:103CF800616B000E636F100E626F1AEC38F00001F2
:103D08006051A66F010EA76F6DD095C06BF096C07D
:103D18006CF097C06DF098C06EF0A7C06FF0010E00
:103D2800706F9EC071F094512AEC2DF0930E000133
:103D38007D6F020E7E6F99C07FF09AC080F086EC8E
:103D480042F0000E0001A86F0F0EA86501D049D0FF
:103D58009B51010DF3509C25D96EF4509D21DA6ECC
:103D6800F00E9F6FFF0EA06FA751A16FA26BA13B32
:103D7800A23BF00EA217A1510F0BA213F00EA11730
:103D8800A851A127000EA2239F51A127A051A22329
:103D980091C0A3F092C0A4F0A151A327A251A423DB
:103DA800A3C0F6FFA4C0F7FF000EF86E0F0EF7646D
:103DB80003D00800F55005D0F6CFE9FFF7CFEAFFAA
:103DC800EF500001A56FA851010D930EF324E96E81
:103DD800020EF420EA6EEF50A519DF6E9B2BA82B7C
:103DE800B3D7A72BA751A65DD8B08FD793C09FF0A4
:103DF8000F0E9F17D8B4120095C06BF096C06CF0E8
:103E080097C06DF098C06EF0A7C06FF0010E706F8C
:103E18009EC071F094512AEC2DF0930E00017D6F35
:103E2800020E7E6F99C07FF09AC080F086EC42F057
:103E3800000E0001A86F36D09B51010DF3509C2550
:103E4800D96EF4509D21DA6EA651100DA851F326B3
:103E5800000EF42291C09FF092C0A0F0F3509F276B
:103E6800F450A0239FC0F6FFA0C0F7FF000EF86E25
:103E78000F0EF76403D00800F55005D0F6CFE9FF20
:103E8800F7CFEAFFEF500001A16FA851010D930E83
:103E9800F324E96E020EF420EA6EEF50A119DF6EEA
:103EA8009B2BA82B93C09FF00F0E9F179F51A85DC7
:103EB800D8B01200C1D7000E0001B46F000EB56F64
:103EC800000EB66F000EB76FAFC0D9FFB0C0DAFFF3
:103ED800DF50B86FAF4BB02BAFC0D9FFB0C0DAFF1F
:103EE800FF0EDE14B46FFF0EDE14B56FFF0EDE1486
:103EF800B66F000EDE14B76FB4C09AF0B5C09BF071
:103F0800B6C09CF0B7C09DF0640E9E6F000E9F6F08
:103F1800000EA06F000EA16F80EC3DF09AC0B4F0C7
:103F28009BC0B5F09CC0B6F09DC0B7F0030E000171
:103F3800AF25AF6F000EB021B06FAFC0D9FFB0C0D2
:103F4800DAFFDF50B36FAF4BB02BB85161EC46F0DE
:103F58000009D8A44BD00001B8517FEC3EF0000115
:103F6800B451A61922E1B551A7191FE1B651A819F4
:103F78001CE1B751A919D8A418D003019851020D12
:103F8800000E0001B16F030EB26F990EB127000E3B
:103F9800B223F350B127F450B223010EB125D96EE4
:103FA800000EB221DA6E0301DF8EB3C062F00001A9
:103FB800B851C1EC40F00009D8A418D003019851B9
:103FC800020D000E0001B16F030EB26F990EB127FA
:103FD800000EB223F350B127F450B223010EB125DD
:103FE800D96E000EB221DA6E0301DF8C03019851FD
:103FF800020D000E0001B16F030EB26F990EB127CA
:10400800000EB223F350B127F450B223010EB125AC
:10401800D96E000EB221DA6E0301DFAE2BD09851B3
:10402800020D000E0001B16F030EB26F990EB12799
:10403800000EB223F350B127F450B223010EB1257C
:10404800D96E000EB221DA6E0301DFAC13D0000185
:10405800B451B511B611B711D8A406D0000E646FCB
:10406800B85180EC43F006D0B3C066F00001B851F7
:10407800A1EC42F0AFC0AFF0B0C0B0F01200E3EC7A
:1040880045F060C024F261C025F202013A05D8A4C7
:1040980071D0000E3A6F18C26CF019C26DF01AC2D6
:1040A8006EF01BC26FF000016C1F6D1F6E1F6F1F3B
:1040B8006C2B000E6D236E236F234450706F455098
:1040C800716F726B736B701F711F721F731F702B70
:1040D800000E7123722373230201245100017025FD
:1040E800746F0201255100017121756F000E722154
:1040F800766F000E7321776F6C517425786F6D5150
:104108007521796F6E5176217A6F6F5177217B6FA8
:104118003C5078257C6F3D5079217D6F3E507A2147
:104128007E6F3F507B217F6F000E7C250201146F4C
:10413800000E00017D210201156F010E00017E2194
:104148000201166F000E00017F210201176F24C2C1
:1041580018F225C219F21A6B1B6B000E3C6E000E8A
:104168003D6E000E3E6E000E3F6E000E456E000E58
:10417800446E49D018C26CF019C26DF01AC26EF0C4
:104188001BC26FF000016C1F6D1F6E1F6F1F6C2B21
:10419800000E6D236E236F2344C070F045C071F08C
:1041A800701F711F704B712B020124510001702781
:1041B800020125510001712370516C25726F7151F4
:1041C8006D21736F000E6E21746F000E6F21756F75
:1041D8003C5072250201146F3D5000017321020109
:1041E800156F3E50000174210201166F3F50000107
:1041F80075210201176F14511827155119231651EB
:104208001A2317511B2314C268F015C269F016C28D
:104218006AF017C26BF01200000E0001DA6FD50EBB
:10422800606F080E616F000E636F000E626F010E03
:10423800656F0F0E646FB0EC43F00001D89BD89DFA
:10424800D89FFC0ED817D895D897D899DA51010D70
:10425800D50EF324D96E080EF420DA6ED8C0DFFF2D
:10426800DA2B000ED96F070ED96501D022D0D951AB
:10427800D06FD16BD01FD11FD04BD12B070ED027B9
:10428800000ED123520ED025D96E030ED121DA6E3D
:10429800D951DAC0D2F0D36BD227000ED323D50E72
:1042A800D225E96E080ED321EA6EDFCFEFFFD92BB6
:1042B800DAD7DA51080FDA6F000ED96F070ED96511
:1042C80001D022D0D951D06FD16BD01FD11FD04B84
:1042D800D12B070ED027000ED1235A0ED025D96E28
:1042E800030ED121DA6ED951DAC0D2F0D36BD227BE
:1042F800000ED323D50ED225E96E080ED321EA6E1F
:10430800DFCFEFFFD92BDAD7DA51080FDA6FFF0EBC
:10431800AE6FAD6992EC45F0ADC0C3F3AEC0C4F367
:104328000001DA51010DD50EF324606F080EF42058
:10433800616FC30E626F030E636F000E656F020E2E
:10434800646F3AEC3CF00001DA51020FDA6F420E6A
:10435800C76F030EC86FD50EC96F080ECA6FDAC0D3
:10436800CBF048EC3BF0C7C0D4F0C8C0D5F0C9C00A
:10437800D6F0CAC0D7F00001DA51010DD50EF324EA
:10438800606F080EF420616FD40E626F000E636FC9
:10439800000E656F040E646F3AEC3CF00001DA51D0
:1043A800040FDA6FDA5112000301E105D8B42DECDD
:1043B8003EF0340E0301E66FE651D3EC47F0000EF1
:1043C8000301026F000E036F000E046F000E056FED
:1043D800CE69000ECF6F000EB96F000EBA6F000ED7
:1043E800BB6F000EBC6F000EC66F000EC56F000ECF
:1043F8000A6F000E0B6F000E0C6F000E0D6F000E93
:10440800066F000E076F000E086F000E096F000E92
:10441800C46F000EC36F000ECD6F010ECC6F000E7F
:10442800C26F000EC16F000EDF6F000EE06F000E4E
:10443800B96F000EBA6F000EBB6F000EBC6F03950C
:10444800000E026F000E036F000E046F000E056F62
:10445800000E016F000E006F070EC86F000EC76FC9
:10446800010ECA6F010EC96FD169D60E0001826FA5
:10447800070E836FE00E846F130E856FF30E866F41
:10448800360E876F7CEC1DF018EC40F0000E03012F
:10449800D26FE00E186F130E196FF30E1A6F360EE7
:1044A8001B6F000E1C6F000ED06F94EC2EF0000EE8
:1044B8000301976F000E966F1D0E0001606F030ECB
:1044C800616F000E636F000E626F000E656F690EFC
:1044D800646FB0EC43F0030E0301876FE80E866F3C
:1044E800070E896FD00E886F130E8B6F880E8A6F38
:1044F800170E8D6F700E8C6F070E936FD00E926F24
:10450800200E956F400E946F400E8F6F000E8E6FC9
:10451800000E0001A76F000EA66FB4EC24F0010E88
:10452800C4EC47F01200050EE126000EE22203015A
:1045380003A103A52CD0FF0EE36A0FD0FF0EE350B2
:10454800020D990EF324D96E030EF420DA6E020ED2
:10455800DE18D8B409D0FF0EE32AFF0EE3CF48F0E7
:104568009851485CD8A0EAD7FF0EE3509819D8A410
:104578000ED09851020D990EF324D96E030EF42033
:10458800DA6E020EDF6E100E986101D0982B03A52B
:104598007BD0C05107E1BD29FF0EBE590F0EBF5990
:1045A800D8A024D0BDC360F0BEC361F0BFC362F021
:1045B800C0C363F07D0E0001646F000E656F000ECE
:1045C800666F000E676FA0EC38F060C050F061C0F5
:1045D80051F062C052F063C053F00C0ED8905036C0
:1045E800513652365336E82EF9D72BD0BDC350F08A
:1045F800BEC351F0BFC352F0C0C353F00C0ED890E5
:104608005036513652365336E82EF9D750C060F03E
:1046180051C061F052C062F053C063F07D0E0001DA
:10462800646F000E656F000E666F000E676FA0EC7A
:1046380038F060C050F061C051F062C052F063C001
:1046480053F0FB0E50C0E3FFFC0E51C0E3FFFD0E1C
:1046580052C0E3FFFE0E53C0E3FFE150FB0FD96EDB
:10466800E250DA6EFF0EDA22DECF6DF0DECF6EF0AA
:10467800DECF6FF0DECF70F00301D8513AEC40F096
:104688000301D851DAEC35F0FA0EE126FF0EE222EA
:10469800120070EC46F001C024F202C025F20201BB
:1046A8003A05D8A465D0000E3A6F18C20DF019C2A9
:1046B8000EF01AC20FF01BC210F00D1E0E1E0F1EB8
:1046C800101E0D2A000E0E220F2210224450116EC9
:1046D8004550126E136A146A111E121E131E141E00
:1046E800112A000E12221322142224511124156EAD
:1046F80025511220166E000E1320176E000E14207E
:10470800186E0D501524196E0E5016201A6E0F5083
:1047180017201B6E105018201C6E3C5019241D6E5B
:104728003D501A201E6E3E501B201F6E3F501C200D
:10473800206E000E1D24146F000E1E20156F010E32
:104748001F20166F000E2020176F24C218F225C2F2
:1047580019F21A6B1B6B000E3C6E000E3D6E000EBC
:104768003E6E000E3F6E000E456E000E446E3DD04C
:1047780018C20DF019C20EF01AC20FF01BC210F0C9
:104788000D1E0E1E0F1E101E0D2A000E0E220F22C9
:10479800102244C011F045C012F0111E121E114A19
:1047A800122A245111262551122211500D24136E5C
:1047B80012500E20146E000E0F20156E000E1020E1
:1047C800166E3C501324146F3D501420156F3E5044
:1047D8001520166F3F501620176F145118271551C2
:1047E800192316511A2317511B2314C209F015C295
:1047F8000AF016C20BF017C20CF01200000120EEEE
:1048080001F06051D9266151DA22DF50626F20EE43
:1048180005F06051D9266151DA2200EE01F06051AD
:10482800E9266151EA22DFCFEFFF20EE09F060515F
:10483800D9266151DA2200EE05F06051E92661516E
:10484800EA22DFCFEFFF20EE0DF06051D92661514B
:10485800DA2200EE09F06051E9266151EA22DFCF41
:10486800EFFF20EE0DF06051D9266151DA2262C0C7
:10487800DFFF20EE02F06051D9266151DA22DF50C5
:10488800626F20EE0AF06051D9266151DA2200EEFB
:1048980002F06051E9266151EA22DFCFEFFF20EEF6
:1048A8000AF06051D9266151DA2262C0DFFF20EE9A
:1048B8000EF06051D9266151DA22DF50626F20EE86
:1048C80006F06051D9266151DA2200EE0EF06051EF
:1048D800E9266151EA22DFCFEFFF20EE06F06051B2
:1048E800D9266151DA2262C0DFFF20EE03F0605161
:1048F800D9266151DA22DF50626F20EE0FF0605145
:10490800D9266151DA2200EE03F06051E92661519F
:10491800EA22DFCFEFFF20EE0BF06051D92661517C
:10492800DA2200EE0FF06051E9266151EA22DFCF6A
:10493800EFFF20EE07F06051D9266151DA2200EE30
:104948000BF06051E9266151EA22DFCFEFFF20EE3C
:1049580007F06051D9266151DA2262C0DFFF1200E8
:10496800A6C09AF0A7C09BF000019C6B9D6BE80E57
:104978009E6F030E9F6F000EA06F000EA16F80EC5C
:104988003DF09AC0BDF39BC0BEF39CC0BFF39DC071
:10499800C0F30001A651A711D8A42BD00301D85108
:1049A800B9EC44F003010395000E0001B26F1AD070
:1049B800B251020D990EF324D96E030EF420DA6E6B
:1049C800020EDE18D8A40CD0B251020D990EF324B1
:1049D800D96E030EF420DA6EFF0EDF6E030198071E
:1049E8000001B22B030198510001B25DD8B012004A
:1049F800DFD70301038502A91200C05107E1BD29D1
:104A0800FF0EBE590F0EBF59D8A01DD0BDC360F010
:104A1800BEC361F0BFC362F0C0C363F07D0E000186
:104A2800646F000E656F000E666F000E676FA0EC76
:104A380038F00C0ED8900001603761376237633761
:104A4800E82EF8D723D0BDC3AAF0BEC3ABF0BFC3CE
:104A5800ACF0C0C3ADF00C0ED8900001AA37AB374C
:104A6800AC37AD37E82EF8D7AAC060F0ABC061F01C
:104A7800ACC062F0ADC063F07D0E646F000E656F70
:104A8800000E666F000E676FA0EC38F060C0AEF0E5
:104A980061C0AFF062C0B0F063C0B1F0AEC06DF0FD
:104AA800AFC06EF0B0C06FF0B1C070F00301D85164
:104AB8003AEC40F00301D851DAEC35F01200540E0C
:104AC800F66E770EF76E000EF86E07EE66F020EEC3
:104AD80060F00900F5CFEEFFDD50D950FAE1C40EC1
:104AE800F66E810EF76E000EF86E06EE98F020EE68
:104AF80040F00900F5CFEEFFDD50D950FAE13E0E47
:104B0800F66E830EF76E000EF86E05EE94F020EE4A
:104B18003CF00900F5CFEEFFDD50D950FAE1EA0E7E
:104B2800F66E7D0EF76E000EF86E04EEB0F020EE15
:104B38004DF00900F5CFEEFFDD50D950FAE1720EC5
:104B4800F66E8E0EF76E000EF86E03EEE7F020EEAE
:104B580010F00900F5CFEEFFDD50D950FAE1460E0E
:104B6800F66E8B0EF76E000EF86E02EECCF020EEAD
:104B780020F00900F5CFEEFFDD50D950FAE1180E0C
:104B8800F66E900EF76E000EF86E00EE54F020EE02
:104B980004F00900F5CFEEFFDD50D950FAE107EE39
:104BA800C6F022EE1EF0EE6ADD50D950FCE1DA5074
:104BB800FAE107EE00F0660EEE6AE806FDE106EEA1
:104BC80000F0980EEE6AE806FDE105EE00F0940E9E
:104BD800EE6AE806FDE104EE00F0B00EEE6AE806C3
:104BE800FDE103EE00F0E70EEE6AE806FDE102EEF5
:104BF80000F0A90EEE6AE806FDE100EE3CF00C0EAE
:104C0800EE6AE806FDE10001BDEF41F0000E00018B
:104C1800B86F24EEDDF000EE98F00F0EDBCFEBFF5F
:104C2800E806FCE2A80E606F000E616F000E636F6D
:104C3800000E626F000E656F100E646FB0EC43F0EB
:104C4800A80E00017D6F000E7E6F91C07FF092C0AC
:104C580080F086EC42F00001A8BF0DD0A80E606F6E
:104C6800000E616F93C062F094C063F0100E646F21
:104C780079EC3BF02AD0A80E0001606F000E616F3E
:104C880093C062F094C063F0100E646F79EC3BF04F
:104C9800000E0001B86F0F0EB86501D016D0B851DC
:104CA800010D980EF324D96E000EF420DA6EDF5051
:104CB800976FB851010DF3509325D96EF450942194
:104CC800DA6E9751DF1AB82BE6D793C0D9FF94C094
:104CD800DAFF0001DFBE0DD093C060F094C061F030
:104CE80095C062F096C063F0100E646F79EC3BF0EB
:104CF800120093C060F094C061F095C062F096C055
:104D080063F0100E0001646F79EC3BF0000E0001B7
:104D1800B86F0F0EB86501D01200B851010DF350ED
:104D28009525D96EF4509621DA6EB851010D980E7A
:104D3800F324E96E000EF420EA6EEF50976FB85135
:104D4800010DF3509525E96EF4509621EA6EEF5067
:104D58009719DF6EB82BDDD7E652E652E652E652D7
:104D6800030100950289F00E0217C16BC26BDF6B5D
:104D780003A57BD0C05107E1BD29FF0EBE590F0E18
:104D8800BF59D8A024D0BDC360F0BEC361F0BFC373
:104D980062F0C0C363F07D0E0001646F000E656FA2
:104DA800000E666F000E676FA0EC38F060C050F020
:104DB80061C051F062C052F063C053F00C0ED8903D
:104DC8005036513652365336E82EF9D72BD0BDC35C
:104DD80050F0BEC351F0BFC352F0C0C353F00C0E25
:104DE800D8905036513652365336E82EF9D750C03F
:104DF80060F051C061F052C062F053C063F07D0EA4
:104E08000001646F000E656F000E666F000E676F1D
:104E1800A0EC38F060C050F061C051F062C052F0B0
:104E280063C053F0FC0E50C0E3FFFD0E51C0E3FF1A
:104E3800FE0E52C0E3FFFF0E53C0E3FFE150FC0F2C
:104E4800D96EE250DA6EFF0EDA22DECF6DF0DECFD9
:104E58006EF0DECF6FF0DECF70F00301D8513AEC80
:104E680040F00301D851DAEC35F042504310D8B481
:104E78000CD001D80AD00500FA6E4250FD6E43509E
:104E8800FE6EFF6AFA50010E1200FB0EE126FF0EBD
:104E9800E22212003F0ECDEC44F00001F36FF3A7BD
:104EA80012005BC265F0000E666F000EB0EC2BF0CE
:104EB800020166916C51B9EC44F08A96020166B918
:104EC80012006A5122EC41F00001945108E11F0ED2
:104ED800915DAC0E9259DF0E9359D8A021D00201F2
:104EE8006A5122EC41F00D0E06D00001D89094339F
:104EF800933392339133E82EF8D791C09AF092C049
:104F08009BF093C09CF094C09DF07D0E9E6F000EA8
:104F18009F6F000EA06F000EA16F80EC3DF021D0B6
:104F280002016A5122EC41F091C09AF092C09BF0C4
:104F380093C09CF094C09DF07D0E00019E6F000E02
:104F48009F6F000EA06F000EA16F80EC3DF00D0E5C
:104F580006D00001D8909D339C339B339A33E82EBA
:104F6800F8D79AC0EFF09BC0F0F09CC0F1F09DC05C
:104F7800F2F0EFC0E7F0F0C0E8F0F1C0E9F0F2C0FD
:104F8800EAF00001E71FE81FE91FEA1FE72B000E00
:104F9800E823E923EA23200EE725EB6F4E0EE821EC
:104FA800EC6F000EE921ED6F000EEA21EE6F0201B1
:104FB8006A51B9EC44F0EBC0DBF0ECC0DCF076EC05
:104FC80016F01200030100A121D0CA51C85DD8A073
:104FD80003D0D6EC39F012001EEC47F040504110D7
:104FE800D8B41200000E0001D56F000ED66F000E67
:104FF800D76F000ED86F01D812000500FA6E405026
:10500800FD6E4150FE6EFF6AFA5012000301C9514D
:10501800C75DD8A054D00251F00B0609026F010EEB
:10502800AEEC2AF00009D8A430D0E50E0001B16F2B
:10503800080EB26FC5C3B3F02DEC19F00001B151E1
:10504800B211D8A403D00301C92B120003010251E5
:10505800F00B0609026F000E0001DB6F000EDC6F1B
:10506800010EDD6F000EDE6FDBC06DF0DCC06EF090
:10507800DDC06FF0DEC070F00301E5513AEC40F09E
:105088000301E551DAEC35F012000AEC47F0405024
:105098004110D8B41200000E0001D56F000ED66F73
:1050A800000ED76F010ED86F01D812000500FA6EF6
:1050B8004050FD6E4150FE6EFF6AFA5012000AEC35
:1050C80047F040504110D8B41200000E0001D56FCF
:1050D800000ED66F000ED76F010ED86F01D81200E0
:1050E8000500FA6E4050FD6E4150FE6EFF6AFA50A0
:1050F800120002016C51B9EC44F08A96080E0001C6
:10510800626F120EF3EC45F05BC265F0000E000111
:10511800666F000EB0EC2BF00201669166B91200C2
:105128006A5122EC41F00001945108E11F0E915D93
:10513800AC0E9259DF0E9359D8A021D002016A51C2
:1051480022EC41F00D0E06D00001D8909433933331
:1051580092339133E82EF8D791C09AF092C09BF021
:1051680093C09CF094C09DF07D0E9E6F000E9F6FC3
:10517800000EA06F000EA16F80EC3DF021D002015F
:105188006A5122EC41F091C09AF092C09BF093C012
:105198009CF094C09DF07D0E00019E6F000E9F6FE5
:1051A800000EA06F000EA16F80EC3DF00D0E06D032
:1051B8000001D8909D339C339B339A33E82EF8D75F
:1051C8009AC0EFF09BC0F0F09CC0F1F09DC0F2F0E7
:1051D800EFC0E7F0F0C0E8F0F1C0E9F0F2C0EAF0A3
:1051E8000001E71FE81FE91FEA1FE72B000EE8236D
:1051F800E923EA23200EE725EB6F4E0EE821EC6F3A
:10520800000EE921ED6F000EEA21EE6FEBC0DBF036
:10521800ECC0DCF076EC16F012000201E0512BEC49
:1052280045F00101FD6FFD290201C56F000EB96F40
:10523800060EBA6F000E2E6F14EC48F0010E020134
:105248002F6FE0513FEC34F00201BB6F030EC55FD6
:10525800BB51D8B45BD0010EC46F4CD0000EBF6FE9
:10526800000EC06F000EC16F000EC26F000EC36F3C
:10527800C35127E1800EC05D1A0EC159060EC259EE
:10528800D8B01FD0BBEC42F002013E51D8B412D0C6
:1052980061EC41F00101FD6F0201C451010DF350B1
:1052A800B925D96EF450BA21DA6EFDC1DFFF010EBF
:1052B800BF6F07D0010EC027000EC123C223C3232E
:1052C800D7D7BF51D8B403D0000EBF6F12D0FC0E91
:1052D800BC6FE0C2D3F0BC0E0001D46F020ED56FD4
:1052E800010ED66F0201DF51AEEC2CF00201BE6F49
:1052F80005D0C42BC551C45DD8A0B0D7020EC55F78
:10530800C5C264F6E05163EC1BF00FD0FD0EBD6F13
:10531800E0C2D3F0BD0E0001D46F020ED56F010EAE
:10532800D66F0201DF51AEEC2CF00201BE6FBE5108
:105338001200E652030103B183D0CA51C85DD8A058
:1053480060D0DAEC3BF0536E0D0E5326FF0E53C0BF
:10535800E3FFFF0EE350496E4A6A0301C551495CF9
:10536800C6514A58D8A039D0010EAEEC2AF000092F
:10537800D8A430D0E50E0001B16F080EB26FC5C3D6
:10538800B3F02DEC19F0B1C049F0B2C04AF0495061
:105398004A10D8A41FD003010251F00B0109026F73
:1053A800CA2BCAB14FD0D051D8B44CD0CA51496ECB
:1053B8004A6AC851526E536A010E5226000E532291
:1053C8004950521804E14A505318D8B43BD05EEC07
:1053D80030F038D0D6EC39F035D01EEC47F04050DC
:1053E8004110D8B42FD0000E0001D56F000ED66F33
:1053F800000ED76F040ED86F01D824D00500FA6EBE
:1054080018D0CA51C85DD8A003B11CD01EEC47F013
:1054180040504110D8B416D0000E0001D56F000ED0
:10542800D66F000ED76F000ED86F01D80BD00500CD
:10543800FA6E4050FD6E4150FE6EFF6AFA5012003F
:105448001EEC47F0E552E55212000001BA6F000E5B
:105458000001B86F000EB96FAF51D8A404D0030E85
:10546800BA6F060EB96FBAC0ADF0AE6B92EC45F0EC
:105478000001AD29BB6FBBC0B7F05CD0B9C0BCF0B0
:105488003BD0BC51020D010EF326000EF422790E1A
:10549800F324D96E020EF420DA6E0201DF500F0BEE
:1054A8000001B26FB2510301D05DD8A023D0000132
:1054B800BC51020D010EF326000EF422790EF324DE
:1054C800D96E020EF420DA6E0201DF380F0B0001EC
:1054D800B26F0301D0510001B25DD8A00BD0BC510E
:1054E800020D790EF324D96E020EF420DA6EDE0472
:1054F800D8B4BB070001BC2BBA51B9C0B2F0B36B2A
:10550800B227000EB323BC51B46FB56BB251B45D72
:10551800B551800AB66FB351800AB659D8B003D0D6
:10552800BB51D8A4AED7B751BB19D8A403D0090E24
:10553800B86F03D0BB51D8A4A1D7BC51D8B402D0FE
:10554800BC0501D0BA05B0C0D9FFB1C0DAFFDF6E23
:10555800B85112000001C16F000E0001C36F0301B2
:10556800E651D3EC47F0D0C3C2F0C1C0AFF0C40ECF
:105578000001B06F000EB16F0301DE5129EC2AF073
:105588000001C36F0301D051010D3A0EF324F66EEA
:10559800FA0EF420F76EF86A000EF8220800F550AB
:1055A800C9EC47F00301D051E05DD8B004D0E05118
:1055B8000008D02501D0000E176FC2C0D0F300013B
:1055C800C351D8A445D0C4517FEC3EF0A6C0BDF06D
:1055D800A7C0BEF0A8C0BFF0A9C0C0F0070EE2EC9B
:1055E80047F0050E0001C46511D00301D251010D29
:1055F800400EF324F66EFA0EF420F76EF86A000EE9
:10560800F8220800F550CEEC47F010D00301D25133
:10561800010D2B0EF324F66EFA0EF420F76EF86ADD
:10562800000EF8220800F550CEEC47F0BDC060F03F
:10563800BEC061F0BFC062F0C0C063F0D5EC37F007
:10564800010EDDEC47F0000ED8EC47F0C4C0CBF3F8
:105658000001C351120000018C698D698E698F6940
:1056680043EC20F068C088F069C089F06AC08AF00D
:105678006BC08BF0000E0001906F61D09051080D47
:10568800040EF326000EF422000EF324D96E040E45
:10569800F420DA6EDE04D8A451D09051080D000E23
:1056A800F324D96E040EF420DA6EDE50885DDE50E5
:1056B8008959DE508A59DE508B59D8A00DD09051A7
:1056C800080D000EF324D96E040EF420DA6EDE6A9B
:1056D800DE6ADE6ADD6A32D09051080D000EF324CE
:1056E800D96E040EF420DA6E8851DE5E8951DE5AD6
:1056F8008A51DE5A8B51DE5A9051080D000EF32460
:10570800D96E040EF420DA6E8C51DE5C8D51DE58B1
:105718008E51DE588F51DE58D8B010D09051080DF8
:10572800000EF324D96E040EF420DA6EDECF8CF06E
:10573800DECF8DF0DECF8EF0DECF8FF0902B46508F
:10574800905DD8A09BD78CC080F08DC081F08EC0B2
:1057580082F08FC083F0120000016A6F000165516A
:10576800D8A408D0060E6A19D8B41200070E6A1910
:10577800D8B41200070E6A17010E6517010ECDEC9A
:1057880044F000016B6F6BAF02D0010E01D0000E28
:10579800676F6B51070B696F67516519D8B41BD0D8
:1057A8006951D8B409D06B51F80B626F010EF3EC54
:1057B80045F0000E0001696F6551D8A403D06B5104
:1057C800780B03D06B51780B80096B6F6BC062F05C
:1057D800010EF3EC45F0000169516A19D8B41200C2
:1057E8006A51D8B415D06605D8A412D0410ECDECB4
:1057F80044F00001686F6551D8A403D0300E6813D7
:1058080002D0CF0E681768C062F0410EF3EC45F085
:10581800F80E00016B176A516B136BC062F0010E32
:10582800F3EC45F000016605D8A412006A51D8B41B
:1058380006D08CEC47F00009D8A41200FAD7010E64
:105848000001606F000E616F000E626F000E636FE3
:1058580098EC43F012002D682E682F6830684DECE4
:1058680023F009C029F00AC02AF00BC02BF00CC0A5
:105878002CF0000E316E61D03150080D040EF32665
:10588800000EF422000EF324D96E040EF420DA6E12
:10589800DE04D8A451D03150080D000EF324D96E7F
:1058A800040EF420DA6EDE50295CDE502A58DE50F1
:1058B8002B58DE502C58D8A00DD03150080D000EB2
:1058C800F324D96E040EF420DA6EDE6ADE6ADE6A2C
:1058D800DD6A32D03150080D000EF324D96E040E63
:1058E800F420DA6E2950DE5E2A50DE5A2B50DE5A3A
:1058F8002C50DE5A3150080D000EF324D96E040ED8
:10590800F420DA6E2D50DE5C2E50DE582F50DE5813
:105918003050DE58D8B010D03150080D000EF324A6
:10592800D96E040EF420DA6EDECF2DF0DECF2EF025
:10593800DECF2FF0DECF30F0312A4650315CD8A0D0
:105948009BD72DC021F02EC022F02FC023F030C0ED
:1059580024F012000001D86F030103A102D0080E41
:10596800120002AF02D0050E120002B902D0010ED9
:1059780012000001D351D8A405D0D651D8B402D012
:10598800030E1200DAEC3BF00001D76FD651D75D59
:10599800D8B002D0070E1200030106290AE1072930
:1059A80008E1082906E10929D8A403D00483060ED2
:1059B800120002510F0B0009D8B405D01251D8A417
:1059C80002D0020E1200010EAEEC2AF00001D96FCF
:1059D800D951D8B402D0D9511200020E03011219BC
:1059E800D8B470EC45F0D3C0C7F0D4C0C8F0D5C067
:1059F800C9F0D6C0CAF00001CB6BD8513DEC0EF00F
:105A0800E50E0001B16F080EB26FC5C3B3F02DECFF
:105A180019F00001B151B211D8A414D0010E03013C
:105A28000627000E0723082309230001D805D8A458
:105A380002D0030100810301008B0251F00B010920
:105A4800026F02D0020E1200000E12000001726FE7
:105A5800000E0001736F930E606F020E616F000EEF
:105A6800636F000E626F000E656F100E646FB0EC0E
:105A780043F000017351010D930EF324D96E020E09
:105A8800F420DA6E70C0DFFF7351050F736F735126
:105A9800010D930EF324D96E020EF420DA6E72C053
:105AA800DFFF732B7151D8A413D07351010D930EDE
:105AB800F324606F020EF420616F1E0E626F030EF6
:105AC800636F000E656F040E646F3AEC3CF012D001
:105AD8007351010D930EF324606F020EF420616F71
