:100000000C949C000C94BB000C94BB000C94BB00A3
:100010000C94BB000C94BB000C94BB000C94BB0074
:100020000C94BB000C94BB000C94BB000C94BB0064
:100030000C94BB000C94BB000C94BB000C94BB0054
:100040000C94DE020C94BB000C94BB000C94BB001F
:100050000C94BB000C94BB000C94BB000C94BB0034
:100060000C94BB000C94BB000C94BB000C94BB0024
:100070000C94BB000C94BB000C94BB000C94BB0014
:100080000C94BB000C94BB000C94BB00250B250BFF
:10009000250B250B250B250B250B250B250B250BE0
:1000A000250B250B250B0C0B250B250B850A8A0A26
:1000B0008F0A940A990A9E0AA30AA80AAD0AB20AEC
:1000C000250B250B250B250B250B250B250BB70A1F
:1000D000BC0AC10AC60ACB0AD00AD50ADA0ADF0A64
:1000E000250BE40AE90A250B250BEE0AF30A250B7A
:1000F000F80AFD0A020B250B250B250B250B070B18
:10010000250B250B250B250B250B250B250B250B6F
:10011000250B250B250B250B250B250B250B160B6E
:10012000250B250B250B250B1B0B250B250B250B59
:10013000250B200B250B110B11241FBECFEFD0E197
:10014000DEBFCDBF12E0A0E0B1E0ECEAF9E100E0F3
:100150000BBF02C007900D92A639B107D9F713E083
:10016000A6E9B2E001C01D92AC3DB107E1F70E94E3
:100170001F030C94D40C0C9400000895FC01208102
:1001800031812230310529F1233031053CF421152C
:10019000310559F02130310561F510C023303105AA
:1001A00009F12430310529F514C08091C6028283FB
:1001B0008091A002838321E030E01BC08091C602C1
:1001C00084838091A0028583613089F022E030E051
:1001D00010C08091C60286838091A002878323E0AD
:1001E00030E007C0613019F020E030E002C024E0C8
:1001F00030E0C9010895FC018091C602828380919C
:10020000A002838381E090E00895FC018091C60202
:1002100084838091A0028583613019F022E030E070
:1002200002C024E030E0C9010895FC018091C602BB
:1002300086838091A002878383E090E008958130D7
:1002400019F020E030E002C024E030E0C901089558
:100250008091A502A82FB0E0FD0123E0EE0FFF1F63
:100260002A95E1F7EE54FD4F2091C8023091C90262
:10027000868197812817390789F52091C20230912C
:10028000C302808191812817390741F5FD0193E070
:10029000EE0FFF1F9A95E1F7EC54FD4F2091C40239
:1002A0003091C5028081918128173907B9F440E067
:1002B00083E0AA0FBB1F8A95E1F7AA54BD4F209196
:1002C000C6023091C7028D919C912817390709F019
:1002D00041E081E04827242F30E002C020E030E0F8
:1002E000C90108950E94460380E090E008950E94AD
:1002F000670380E090E008950E94670380E090E04B
:1003000008950E94270380E090E00895FC01019089
:10031000F081E02DE230F10541F0E330F10541F0EC
:10032000319741F40E94270305C00E94670302C071
:100330000E94460380E090E008950F931F93092FD9
:100340001091C602181B812F64E04BE00E94C9097E
:10035000153039F48091A00220E030E0081738F021
:1003600004C020E030E0163010F021E030E0C90198
:100370001F910F9108950F931F93092F1091C6029B
:10038000181B812F64E048E00E94C909153039F438
:100390008091A00220E030E0081738F004C020E08F
:1003A00030E0163010F021E030E0C9011F910F91CC
:1003B00008950F931F93092F1091C602181B812FC8
:1003C00064E045E00E94C909153039F48091A0022B
:1003D00020E030E0081738F004C020E030E01630AC
:1003E00010F021E030E0C9011F910F910895FC0148
:1003F000808191818130910589F0823091051CF4D2
:10040000892B49F005C08230910569F0039781F08E
:1004100020E030E012C00E9428010EC0828193814A
:100420000E94D90109C0848195810E94BB0104C04A
:10043000868197810E949D019C01C9010895CF93F7
:10044000DF93EC01009711F0643031F086E992E01F
:100450000E94F701892B49F086E992E06C2F0E94F7
:10046000BE00909397028093960286E992E00E94E4
:100470008601DF91CF9108958EE0809300548091A2
:1004800000588F7008958DE080930054809100583B
:100490008F7008958BE080930054809100588F7086
:1004A000089587E080930054809100588F700895DC
:1004B0008EE080930054909100589F708DE080935F
:1004C0000054409100588BE08093005430910058C4
:1004D00087E080930054209100589F30B1F09B300A
:1004E00071F09C3020F4973009F059C006C09D305F
:1004F00041F09E3009F053C006C081E0089582E0CB
:10050000089583E0089584E00895842F8F708F30DC
:10051000A9F08B3069F08C3020F4873009F03FC0AF
:1005200005C08D3039F08E30D1F506C085E00895D4
:1005300086E0089587E0089588E00895832F8F70FE
:100540008F30A1F08B3061F08C3018F4873039F5A2
:1005500005C08D3039F08E3011F506C089E0089560
:100560008AE008958BE008958CE00895822F8F70C3
:100570008F3011F480E008958B3061F08C3018F4E6
:10058000873069F405C08D3039F08E3041F406C0F3
:100590008DE008958EE008958FE0089580E108953C
:1005A000282F882311F490E005C090E08091A102EB
:1005B000281391E02093A102892F08951F920F9292
:1005C0000FB60F9211248F9380919E028F5F8093BC
:1005D0009E0282EB82BF80919F028F5F80939F0279
:1005E0008091A0028F5F8093A0028F910F900FBE29
:1005F0000F901F90189582EB82BF80919F028F5FB2
:1006000080939F028091A0028F5F8093A002089543
:100610001F930E945802182F0E944F05112311F4B6
:1006200090E005C090E08091A102181391E0109332
:10063000A102892F612F0E941F021F9108950E941D
:10064000B3050E94CC0478940E940803FDCF81E09A
:1006500090E09093A3028093A20280919E02823048
:1006600051F0833018F4813071F40AC0833029F0DE
:10067000843049F404C084E003C082E001C088E013
:1006800080930040089510929E02089581E090E0CA
:100690009093A3028093A20280919E02823061F027
:1006A000833018F4813081F405C0833039F0843010
:1006B00059F406C084E005C081E003C088E001C0B1
:1006C00082E080930040089510929E020895109257
:1006D000A3021092A2020895DC0111961C921E92B0
:1006E00013961C921E92129770E0FB0193E0EE0F9E
:1006F000FF1F9A95E1F7EA54FD4F0190F081E02D3C
:100700008091C6029091C702E81BF90B1596FC93E5
:10071000EE931497F7FF0BC0FC961596FC93EE939F
:1007200014978FEF9FEF13969C938E931297FB0174
:1007300083E0EE0FFF1F8A95E1F7EC54FD4F019027
:10074000F081E02D12968D919C911397E80FF91F7F
:100750008091C4029091C502E81BF90B1396FC939B
:10076000EE931297F7FF0CC0FC961396FC93EE9352
:1007700012978D919C911197019711969C938E934E
:10078000FB0173E0EE0FFF1F7A95E1F7EE54FD4F8A
:10079000408151818D919C911197480F591F8091F3
:1007A000C2029091C302481B590B26813781809168
:1007B000C8029091C902281B390BC901880F991FE3
:1007C000820F931F880F991F880F991F480F591F79
:1007D00011965C934E9357FF04C0485E5F4F4D9354
:1007E0005C930895FC01DB01208131818D919C9106
:1007F000119728173907CCF082179307ACF02281A4
:10080000338112968D919C911397281739076CF0BC
:10081000821793074CF02481358114968D919C9119
:100820001597281739070CF0FD01CF01089582E0D4
:1008300067E04EE151E00E94040782E068E046E58F
:1008400051E00E94040782E06BE04EE251E00E941A
:10085000040782E06DE04EE551E00E94040782E06B
:100860006EE046E651E00E9404070895CF92DF92C1
:10087000EF92FF920F931F93DF93CF9300D000D09E
:10088000CDB7DEB786EA92E060E00E946C038CEAA6
:1008900092E061E00E946C0386EA92E06CEA72E00A
:1008A0000E94F2036C0186EAC81682E0D80619F4A9
:1008B0001092A50203C081E08093A50223E0E22EFE
:1008C000F12CEC0EFD1EF60180818E010F5F1F4F93
:1008D000B801A7010E94A90949815A8182E065E017
:1008E0000E9404074B815C8182E066E00E9404075D
:1008F000F6018281B801A7010E94A90949815A81A4
:1009000082E069E00E9404074B815C8182E06AE03A
:100910000E9404070F900F900F900F90CF91DF91DE
:100920001F910F91FF90EF90DF90CF9008950E945C
:1009300036040E94170408950895EF92FF920F93D2
:100940001F937C018B01CB010E94F109F70180818B
:100950009181B80145E050E00E94C909C8010E9498
:100960001B0AF70182819381B80148E050E00E94A0
:10097000C909C8010E94150AF70184819581B8014F
:100980004BE050E00E94C909C8010E940F0A1F9164
:100990000F91FF90EF9008950E9446090E94210A4E
:1009A0000E9472050E9485050E94AC0582EC92E0CF
:1009B00061E070E00E949D040E9497048091A5026E
:1009C00090E023E0880F991F2A95E1F78E549D4F00
:1009D00063E070E00E949D0408958091C8029091A8
:1009E000C902892B39F481E090E09093C902809389
:1009F000C80204C01092C9021092C8020E94F109F4
:100A000008958091C6029091C70201969093C70203
:100A10008093C60261E04BE00E94C9098091C60242
:100A20009091C7028C339105CCF1CC979093C7027B
:100A30008093C6028091C4029091C5020196909362
:100A4000C5028093C40261E048E00E94C909809118
:100A5000C4029091C5028C33910504F1CC97909318
:100A6000C5028093C4028091C2029091C302019694
:100A70009093C3028093C20261E045E00E94C909DD
:100A80008091C2029091C3028C3091053CF00C978A
:100A90009093C3028093C2020E94ED040895809156
:100AA000A002843648F08091A00284568093A00270
:100AB0000E9401050E9436049091A5028091A40233
:100AC000981779F09093A402892F90E023E0880F83
:100AD000991F2A95E1F78E549D4F63E070E00E94C4
:100AE0009D0408951092C9021092C8028AE090E015
:100AF0009093C3028093C2021092C5021092C40266
:100B00001092C7021092C60208951092B902109274
:100B1000B8028AE090E09093B3028093B202109200
:100B2000B5021092B40225E030E03093B702209372
:100B3000B6021092C1021092C0029093BB02809341
:100B4000BA021092BD021092BC028EE190E0909326
:100B5000BF028093BE02089581E087BF87E083BF14
:100B600082EB82BF089590E895BF84E480936D0086
:100B700090936C0080EF87BB8CE082B980E381BBEF
:100B8000089581E087BF87E083BF82EB82BF08952D
:100B90008091CA028233B0F08091CB02882341F465
:100BA0001A981B981092CA0281E08093CB02089594
:100BB0008091CB02813031F41A9A1B9A1092CA02AA
:100BC0001092CB0208951A9A1B9A949A959AC49AF5
:100BD000C59AC69AC79A83309105F1F08430910581
:100BE0004CF481309105A1F0823091059CF4892B61
:100BF00069F008958530910599F08530910574F07C
:100C00008630910579F0079781F40EC01A980895FF
:100C10001B9808959498089595980895C4980895F8
:100C2000C5980895C6980895C79808958530910588
:100C300081F18630910588F48230910521F183306D
:100C4000910528F40097D9F0019791F51AC08330E7
:100C50009105D9F0049761F51AC088309105F9F033
:100C60008930910530F486309105A9F0079701F598
:100C700014C089309105A9F00A97D1F416C080EC10
:100C800011C089EF0FC084EA0DC080EB0BC089E969
:100C900009C082E907C083E805C088EF03C080E887
:100CA00001C080E98093006C08958FE78093006C09
:100CB000089590E007C00F920F900F920F900F923F
:100CC0000F909F5F9817B8F308950F931F93CF93DA
:100CD000DF938C01C0E0D0E00DC08AEF0E9459067E
:100CE0008AEF0E9459068AEF0E9459068AEF0E94F5
:100CF00059062196C017D10780F3DF91CF911F913C
:100D00000F910895FF920F931F9300E014E692E075
:100D1000F92EF801F0828093006883E0808381E0FF
:100D20000E945906F801F08282E30E9459061F9141
:100D30000F91FF9008950F931F9300E014E6F801C0
:100D400010828093006881E080830E945906F80138
:100D5000108282E30E9459061F910F910895CF934C
:100D6000DF93EB010E949B0603C00E94820621963E
:100D700088818823D1F7DF91CF91089588E30E947D
:100D80009B068CE00E949B0686E00E949B0681E009
:100D90000E949B0682E090E00E94650608950F93F2
:100DA0001F93807C982F906100E014E6F8019083F7
:100DB000609300688063808390838AE090E00E9463
:100DC0005906F801108282E390E00E9459061F91B3
:100DD0000F9108950F931F93807C00E014E6F801B3
:100DE000808360930068982F9062908380838AE06C
:100DF00090E00E945906F801108282E390E00E9480
:100E000059061F910F910895EF92FF920F931F9330
:100E1000CF93DF93782F673081F1683070F46330BF
:100E200021F1643028F46130E1F06230E0F417C061
:100E30006530F9F06630F8F41AC06B3049F16C3067
:100E400028F46930F9F06A3000F519C06D3031F1DD
:100E50006D3008F16E3029F16F3041F525C000E4A6
:100E60000FC000E410C000E411C000E412C000E4B0
:100E700013C000E414C000E415C000E416C000E88C
:100E800010E414C000E818E411C000E810E50EC03A
:100E900000E818E50BC000E810E608C000E818E616
:100EA00005C000E810E702C000E818E7EA01FF24E7
:100EB00088EBE82EE70E80EC6E2D0E94EA066F2D7F
:100EC000610F80EC0E94EA066991802F90E070E04B
:100ED0000E94CF06F39488E0F81669F7DF91CF916E
:100EE0001F910F91FF90EF9008952F923F924F9294
:100EF0005F926F927F928F929F92AF92BF92CF92AA
:100F0000DF92EF92FF920F931F93DF93CF9300D066
:100F100000D0CDB7DEB73B012A0119011A8309833E
:100F2000FC82EB8200E010E098EBF92EF80E80ECEA
:100F30006F2D0E94EA06602F605C80E40E94EA0642
:100F4000F301E00FF11F608180E490E070E00E9407
:100F5000CF060F5F1F4F0830110549F700E010E082
:100F600080EC6F2D0E94EA06602F685B80E40E948F
:100F7000EA06F201E00FF11F608180E490E070E08A
:100F80000E94CF060F5F1F4F0830110549F700E0A0
:100F900010E080EC6F2D0E94EA06602F605B80E419
:100FA0000E94EA06F101E00FF11F608180E490E009
:100FB00070E00E94CF060F5F1F4F0830110549F700
:100FC00000E010E080EC6F2D0E94EA06602F685A66
:100FD00080E40E94EA06E981FA81E00FF11F608156
:100FE00080E490E070E00E94CF060F5F1F4F083052
:100FF000110541F700E010E080EC6F2D0E94EA0639
:10100000602F605A80E40E94EA06EB81FC81E00FC9
:10101000F11F608180E490E070E00E94CF060F5FD6
:101020001F4F0830110541F700E010E080EC6F2DF4
:101030000E94EA06602F685980E40E94EA06F601E1
:10104000E00FF11F608180E490E070E00E94CF0625
:101050000F5F1F4F0830110549F700E010E080ECEA
:101060006F2D0E94EA06602F605980E40E94EA0614
:10107000F501E00FF11F608180E490E070E00E94D4
:10108000CF060F5F1F4F0830110549F700E010E051
:1010900080EC6F2D0E94EA06602F685880E40E9461
:1010A000EA06F401E00FF11F608180E490E070E057
:1010B0000E94CF060F5F1F4F0830110549F700E06F
:1010C00010E080EC6F2D0E94EA06602F605C80E4E7
:1010D0000E94EA06E98DFA8DE00FF11F608180E839
:1010E00090E070E00E94CF060F5F1F4F083011059F
:1010F00041F700E010E080EC6F2D0E94EA06602FBF
:10110000685B80E40E94EA06EB8DFC8DE00FF11F26
:10111000608180E890E070E00E94CF060F5F1F4F73
:101120000830110541F700E010E080EC6F2D0E94BF
:10113000EA06602F605B80E40E94EA06ED8DFE8D7A
:10114000E00FF11F608180E890E070E00E94CF0620
:101150000F5F1F4F0830110541F700E010E080ECF1
:101160006F2D0E94EA06602F685A80E40E94EA060A
:10117000EF8DF8A1E00FF11F608180E890E070E052
:101180000E94CF060F5F1F4F0830110541F700E0A6
:1011900010E080EC6F2D0E94EA06602F605A80E418
:1011A0000E94EA06E9A1FAA1E00FF11F608180E840
:1011B00090E070E00E94CF060F5F1F4F08301105CE
:1011C00041F700E010E080EC6F2D0E94EA06602FEE
:1011D000685980E40E94EA06EBA1FCA1E00FF11F30
:1011E000608180E890E070E00E94CF060F5F1F4FA3
:1011F0000830110541F700E010E080EC6F2D0E94EF
:10120000EA06602F605980E40E94EA06EDA1FEA183
:10121000E00FF11F608180E890E070E00E94CF064F
:101220000F5F1F4F0830110541F700E010E080EC20
:101230006F2D0E94EA06602F685880E40E94EA063B
:10124000EFA1F8A5E00FF11F608180E890E070E069
:101250000E94CF060F5F1F4F0830110541F70F9016
:101260000F900F900F90CF91DF911F910F91FF90F2
:10127000EF90DF90CF90BF90AF909F908F907F9036
:101280006F905F904F903F902F9008950F931F9312
:101290001092006480EC6FE30E94EA0680EC60EC40
:1012A0000E94EA0608EB80EC602F0E94EA0680ECC0
:1012B00060E40E94EA0610E080EC90E060E070E0FC
:1012C0000E94CF061F5F1034B9F70F3B11F00F5F7C
:1012D000EACF1F910F910895843029F1853048F4A9
:1012E0008130C1F0813098F08230B9F0833069F5F7
:1012F00017C0873009F1883028F48530B9F086307E
:1013000021F517C08830D9F08930F9F41BC026E2E6
:1013100032E01DC02EE232E01AC026E332E017C0F0
:101320002EE332E014C026E432E011C02EE432E0B5
:101330000EC026E532E00BC02EE532E008C026E6FE
:1013400032E005C02EE632E002C026EF31E0C901EE
:101350000895CF92DF92EF92FF921F93182F7B0197
:101360006A016AE00E94C80C0E946C09F70191832F
:101370008083812F6AE00E94C80C892F0E946C092B
:10138000F601918380831F91FF90EF90DF90CF90C3
:1013900008950F931F93DF93CF9300D000D0CDB764
:1013A000DEB7062F142FBE016F5F7F4FAE014D5F7A
:1013B0005F4F0E94A90949815A81802F612F0E94A5
:1013C00004071F5F4B815C81802F612F0E940407FF
:1013D0000F900F900F900F90CF91DF911F910F9171
:1013E00008951F93CF93DF93182F8091C802909197
:1013F000C902892B19F4C6E4D1E002C0CEE4D1E0E1
:10140000812F62E04EE351E00E940407812F63E0E8
:10141000AE010E940407DF91CF911F9108956DE006
:1014200046E351E00E94040708956AE04EE251E06D
:101430000E940407089567E04EE151E00E9404070E
:1014400008950F931F930EE112E080E062E0A8017F
:101450000E94040780E063E0A8010E94040780E086
:1014600064E0A8010E94040780E065E04EE051E0DE
:101470000E94040780E066E046E151E00E94040714
:1014800080E067E04EE151E00E94040780E068E000
:1014900046E251E00E94040780E069E0A8010E9452
:1014A000040780E06AE0A8010E94040780E06BE086
:1014B000A8010E9404071F910F910895DF92EF92F7
:1014C000FF920F931F93CF93DF93082F162F7A016C
:1014D000FA0101900020E9F73197DE2ED41AC0E01E
:1014E000D0E0BBC0F701EC0FFD1F808190E0FC0154
:1014F000B097E635F10508F0A8C0EA5BFF4FEE0FA4
:10150000FF1F0590F491E02D0994802F612F46E292
:1015100052E09FC0802F612F4EE252E09AC0802F90
:10152000612F46E352E095C0802F612F4EE352E0D9
:1015300090C0802F612F46E452E08BC0802F612F36
:101540004EE452E086C0802F612F46E552E081C014
:10155000802F612F4EE552E07CC0802F612F46E640
:1015600052E077C0802F612F4EE652E072C0802F8C
:10157000612F46E751E06DC0802F612F4EE751E0AB
:1015800068C0802F612F46E851E063C0802F612F33
:101590004EE851E05EC0802F612F46E951E059C00E
:1015A000802F612F4EE951E054C0802F612F46EA11
:1015B00051E04FC0802F612F4EEA51E04AC0802F8A
:1015C000612F46EB51E045C0802F612F4EEB51E07B
:1015D00040C0802F612F4EE651E03BC0802F612F2D
:1015E00046EC51E036C0802F612F4EEC51E031C007
:1015F000802F612F46ED51E02CC0802F612F4EEDE2
:1016000051E027C0802F612F46EE51E022C0802F8D
:10161000612F4EEE51E01DC0802F612F4EE152E050
:1016200018C0802F612F4EEF51E013C0802F612F23
:1016300046E052E00EC0802F612F4EE052E009C01C
:10164000802F612F46E152E004C0802F612F46EFCA
:1016500051E00E94040721961F5FCD1508F442CF88
:10166000DF91CF911F910F91FF90EF90DF90089540
:101670000F931F93807C282F206100E014E6F8016F
:101680002083E0E0F8E69081962390838063F80160
:10169000808320838AE090E00E945906F80110823E
:1016A00082E390E00E9459061F910F9108950F93D5
:1016B0001F93807C282F206100E014E6F80120832E
:1016C000E0E0F8E69081962B90838063F8018083B8
:1016D00020838AE090E00E945906F801108282E39C
:1016E00090E00E9459061F910F9108959F92AF922A
:1016F000BF92CF92DF92EF92FF920F931F93CF93FF
:10170000DF93782F5A01673081F1683070F46330CD
:1017100021F1643028F46130E1F06230E0F417C068
:101720006530F9F06630F8F41AC06B3049F16C306E
:1017300028F46930F9F06A3000F519C06D3031F1E4
:101740006D3008F16E3029F16F3041F525C000E4AD
:101750000FC000E410C000E411C000E412C000E4B7
:1017600013C000E414C000E415C000E416C000E893
:1017700010E414C000E818E411C000E810E50EC041
:1017800000E818E50BC000E810E608C000E818E61D
:1017900005C000E810E702C000E818E77501E9019C
:1017A00098EB992E970E88E0C82ED12CCA0CDB1C22
:1017B00080EC692D0E94EA0680EC612F0E94EA0607
:1017C000A114B10451F0F701808188836081802FDA
:1017D00090E070E00E94570B06C06881802F90E077
:1017E00070E00E94380B1F5F0894E11CF11C2196E9
:1017F000EC14FD04E9F6DF91CF911F910F91FF905A
:10180000EF90DF90CF90BF90AF909F900895242FDE
:10181000640F30E043E0220F331F4A95E1F72C526A
:101820003D4F40E050E00E94760B0895242F640F56
:1018300030E053E0220F331F5A95E1F72C5A3C4F0A
:1018400040E050E00E94760B089540E050E02CEC20
:1018500032E00E94760B089540E050E024ED33E042
:101860000E94760B0895BF92CF92DF92EF92FF9283
:101870000F931F93CF93DF93042FB42EB61AE82E45
:10188000FF24C62FD0E0BE0161507040C7010E9406
:101890002C0C10E00F5F1F4FC701B8010E94250CF0
:1018A00000E067010894C108D1080894E11CF11C0C
:1018B0000DC0C601BE01402F50E00E94160CC701AA
:1018C000BE01402F50E00E94070C0F5F0B1588F3FC
:1018D000DF91CF911F910F91FF90EF90DF90CF900C
:1018E000BF900895242F640F30E073E0220F331F60
:1018F0007A95E1F72C523D4F4EE852E00E94760B6C
:101900000895242F640F30E0E3E0220F331FEA959F
:10191000E1F72C5A3C4F46E852E00E94760B0895BE
:101920004EE752E02CEC32E00E94760B089546E739
:1019300052E024ED33E00E94760B0895DF92EF929F
:10194000FF920F931F93182FF62E042FD42ED61A22
:1019500061500E94970C0F5F812F602F0E94900CA6
:1019600000E0E12EEA941F5F0BC08E2D6F2D402FFB
:101970000E94810C812F6F2D402F0E94720C0F5FEF
:101980000D1598F31F910F91FF90EF90DF90089540
:10199000991B79E004C0991F961708F0961B881FC1
:0C19A0007A95C9F780950895F894FFCF60
:1019AC002D2D2D434C4F434B2D2D2D000001000AA6
:1019BC0077574A543F0000320E32007E107E0000F2
:1019CC00380638007E000002524EC03E080000105F
:1019DC00DFBA9F10000080A495CD95A48000808C68
:1019EC0092D2928C8000000012CE92887E00404AE7
:1019FC0057D7574A40000022D28E80BE0800001EE6
:101A0C00D0D0D03E080010D2D5D5D5D210000000D1
:101A1C007F7F414040600040701D171F786000417F
:101A2C007F7F494F7E30001C3E634141422700417D
:101A3C007F7F41633E1C00417F7F495D41630041D4
:101A4C007F7F491D0103001C3E6351137600007F0C
:101A5C007F08087F7F000000417F7F410000007FEE
:101A6C007F081C776341001C3E6341633E1C0041B0
:101A7C007F7F49090F06007F7F09197F664000664A
:101A8C006F4D597B33000003417F7F4103000103FD
:101A9C00477C784703010000000000000000003C78
:101AAC007C40403C7C400000447D7D400000004474
:101ABC007C7C08047C7800485C5C7474240000080E
:101ACC00080808080800001C3E61433E1C0000008A
:101ADC00447F7F40000000466771594F660000222A
:101AEC0063494D7F320000181C527F7F5000002F3D
:101AFC006F45457D3900003C7E4B4979300000072D
:101B0C0043717D0F030000367F4D597F3600000670
:101B1C004F49693F1E000040701D171F786000413F
:101B2C007F7F494F7E30001C3E634141422700417C
:061B3C007F7F41633E1CA7
:00000001FF
